:400000000080002011000000310D0000310D000010B500F0AFFEC04670B5244D12232B6001F006FC012001F023FC182001F01AFB1F4A204B1A60204A116802230B4313605C
:400040001E4A1F4B1A6000241E4B1C601E4A136808218B431360FA20C00001F0B5FB1B4801F0F6FA80225201194B1A60194B1A4919601A490A601A4A1A6080221206194B43
:400080001A60194B1C604022184B1A600132184B1A601849082001F097FA082001F07EFA154B1C6011232B6070BDC046300010400600008004010B4078002E406666000025
:4000C0007C002E4064F02E406CF02E40DC050000000301400000014040FF00800403014041FF008008010B4000010B400801014004010140891900000C020B4010B572B645
:4001000000222F4B1A6000240FE02E486200131959000B00411889881A5AC31858880004104300F0FFFD0134E4B2012CEDD9254801000C31383000F0CBFDEE221206224B34
:400140001A60224A224B1A60224A234B1A6099231B04224A1360224A1360C0210904214A1160214A1360214A214B1A6021490B783C22934314221343DBB20B701E4A117826
:4001800016230B43DBB21370D82212041B4B1A6028221B4B1A60C22292021A4B1A602023194A1360A221194A11601949194A1160194A1360FFF730FF00F0A4FD10BDC046F2
:4001C0006CF02E40602B0000000002400030900000010240390099300003024000500F4010500F4018500F4030500F4000000C8038500F4001700F4000700F40080004401C
:400200000001044008010440180104400003044021108300080304401803044010B5064C2378002B07D1054B002B02D0044800E000BF0123237010BD48010020000000004C
:4002400004270000084B10B5002B03D00749084800E000BF07480368002B00D110BD064B002BFBD09847F9E7000000004C01002004270000C000002000000000F0B55F46B3
:4002800056464D464446F0B4AFB062B6022000F089FE00F0D5FDFD4800F08EFEFC4AFD49FD4800F025FFFD4801F030FC1CAC200000F042FFFA4800F07FFEFA4E00238C2226
:4002C0003100200000F088FB01F0B0FBFA25AD0001232A00F449200000F07EFB01F0A6FB0A21200000F04AFF8023DB0098460A22EE49200000F070FB01F098FB200000F0DA
:400300008DFF200000F018FFE94800F055FE0122E849200000F092FB01F088FB8C21200000F02CFF00223100200000F087FB01F07DFBFA21C900200000F020FF0122DE499E
:40034000200000F07BFB01F071FB0A21200000F015FF200000F062FF0122D849200000F06DFB01F063FB200000F058FFD44800F023FE200000F0E0FE2A00D249200000F0F8
:4003800043FB01F053FBD04800F016FE200000F0D3FE8C21200000F0F1FE17ADCB4E032703223100280001F06BFD05232370CC2399466370656067810022C549200000F0F0
:4003C0004BFB01F033FB0A2323704022C149200000F042FB01F02AFB002323700022BE49200000F039FB01F021FB01239B469A462370002363810022B849200000F02CFB00
:4004000001F014FB8D2363810122B549200000F023FB01F00BFB434663810922B149200000F01AFB01F002FB200000F0F7FEAE4800F0C2FD200000F07FFE8C21200000F049
:400440009DFE0322310006A801F01AFD052323704B46637006AB63606781311D0F220AA801F00EFD0AAAA149200000F009FB01F0DDFA002363810EAF0F220021380001F074
:400480001DFD5B463B7005237B704B46BB70FF2398467B722E23BB72AA23FB723A009449200000F0EDFA01F0C1FA5B46E36012AE0F220021300001F001FD5B463370052327
:4004C00073704B46B3705B463372434673722D23B372AA23F37232008649200000F0D0FA01F0A4FA5B4663816B4642461A765B46E3600F220021280001F0E0FC01232B7068
:4005000005236B704B46AB705B462B7143466B715B466B72FE23AB72D13BEB72AA232B732A007549200000F0ABFA01F07FFA200000F074FE714800F03FFD200000F0FCFD63
:400540008C21200000F01AFE00226D49200000F0DDFA01F06BFA00226A49200000F0D6FA01F064FA200000F059FE674800F024FD200000F0E1FD5B462B705B460093634B5A
:4005800001222900200000F0CFFA01F04FFA6421200000F0F3FD6423E3875B462B705B4600935B4B01222900200000F0BDFA01F03DFA5B462B7000230093564B0122290036
:4005C000200000F0B1FA01F031FA02239B462B700093514B01222900200000F0A5FA01F025FA200000F01AFE4C4800F0E5FC200000F0A2FD8C21200000F0C0FD0F22002141
:4006000002A801F05BFC6B4652461A7205225A724A469A7242465A742E229A74AA22DA740C2363830C2202A9606901F029FC00223B49200000F098FA01F0F8F90F2200214D
:4006400006A801F03BFC6B4652461A7605225A764A469A765A461A7742465A779A7723229B18DA321A706B4624229B180A321A706B4625229B1885321A700E2363830E2268
:4006800006A9606901F0FCFB00224BE01C270000282700004C27000058270000B90F000064270000842700008C27000094270000A4270000C4270000D4270000E0270000E5
:4006C000F4270000182800002C2800000827000064280000742800008428000094280000A0280000BC280000E02800001829000028290000342900004429000054290000FF
:400700006C2900008029000094290000C0290000CC290000DC290000E8290000F8290000242A0000A249200000F01EFA01F07EF90B2363830B2202A9606901F0A1FB20225C
:400740009C49200000F010FA01F070F90F2200210AA801F0B3FB6B4628229B185A461A706B4629229B18243A1A706B462A229B184A461A706B462C229B185A461A706B46B7
:400780002D229B1842461A706B462E229B1842461A706B4633229B18CA321A706B4634229B18063A1A706B4635229B1875321A700E2363830E220AA9606901F061FB02227C
:4007C0007D49200000F0D0F901F030F90F220021380001F073FB53463B7007237B704B46BB705B463B7143467B71BB71FD23FB722E233B73AA237B730E2363830E2239008D
:40080000606901F03DFB40226C49200000F0ACF901F00CF90F220021300001F04FFB53463370052373704B46B3705B46337143467371B371FD23F372F0233373463B7373D1
:400840000E2363830E223100606901F019FB802292005B49200000F087F901F0E7F80F220021280001F02AFB17AC0127277005239B466370CC239A46A370022323714346E8
:400880006371A371FD23E3722E232373AB2363731CAD9D3B6B830E222100219801F0F0FA04224849280000F05FF901F0BFF8280000F0B4FC444800F07FFB280000F03CFCFF
:4008C0008C21280000F05AFC02AE0F220021300001F0F4FA37705B4673705346B370434673722E23B372AA23F3720C236B830C223100686901F0C4FA12AA5B46137053465A
:40090000537006AB53608C231381002399465381D36013612D49280000F096F901F086F80AAE0F220021300001F0C8FA37705B4673705346B3700223337143467371B37116
:40094000FD23F3722E233373AA2373730EAF0F220021380001F0B2FA43463B707B700E236B830E223100686901F08AFA5B4623705346637067608C232381022363814B462B
:40098000E360236122001249280000F05DF901F04DF8280000F042FC01F05AF80D4800F00BFB00F0E9FA0028FBD000F045FEF8E7402A0000502A0000602A0000742A000087
:4009C000842A0000942A0000A82A0000D42A0000E02A0000F42A0000F8B505000E001F00110000F0CBFB0400064B3A000100300001F040F80600002C02D1280000F00EFCDD
:400A00003000F8BDE82C0000F8B505000E001700002408E08C21280000F0B0FB280000F0FDFB0134A4B2BC42F4D3034B00220021300001F01FF8F8BDE82C000070B50C0047
:400A4000150000F0EBFB0100024B2A00200001F011F870BDE82C000070B504000D00160000F096FC0100054B3200280001F002F80500200000F002FC280070BDE82C0000D8
:400A8000F0B5A1B007000591160000F081FC0490002827D01B4B00220100059800F0EAFF2EE0039435192B787969095D5B1A58425841024013D1380000F0E0FB2B787A6939
:400AC0000399525C009222000F4907A801F0CAFA07AB00220499059800F0CCFF10E00134A4B201E0012200247B8B9C42D9D3380000F0C4FB034B00220499059800F0BAFF06
:400B000021B0F0BDE82C0000142B000070B50C00150000F0BBFC0100024B2A00200000F0A9FF70BDE82C0000F0B583B000900D00160001930024002706E0295D009800F028
:400B4000ABFB07430134A4B2B442F6D3009800F09BFB044B089A3900019800F08BFF03B0F0BDC046E82C0000F0B583B007000191160000F07DFB0024002509E0002D05D142
:400B80007B69195D380000F087FB05430134A4B27B8B9C42F2D3002D03D1380000F090FC0543380000F06AFB034B32002900019800F060FF03B0F0BDE82C0000F0B55746E4
:400BC0004E464546E0B4040003780A789A1A5642564143784A789A1A504250418146238908891B1A5A425A41904665894B89EB1A5A425A419246E368CA689F1A7B427B413F
:400C00009C4623690A699F1A784278414A46324043461A40534613406246134018400BD10DE06268D25C4E68F65C921B57425741384001339BB200E00023AB42F1D31CBC57
:400C400090469946A246F0BDF0B589B007000191160000F00DFB0024002509E0002D05D17B69195D380000F017FB05430134A4B27B8B9C42F2D3002D03D1380000F020FC1B
:400C80000543380024303100FFF798FF0400002303931022002104A801F010F9002C09D103A90A480B00020013CA13C303CA03C312781A70380000F0E1FA03AB0022290085
:400CC000019800F0D7FE09B0F0BDC046482B0000F0B50025002711E0BB00C658F3B2FF22964308E06A008A181478A419527822700135013BDBB2002BF4D10137042FEBD9A6
:400D0000F0BDC0460323044A1360044A13600022034B1A607047C0463000304030003140000E3F4010B50A00002101F0C7F810BD10B501F06FF803680C2B00D1FEE7FEE71C
:400D400010B50300094A1068C318094A9A1A8021C9008A4202DC054A136005E001F05AF80C2303600120404210BDC046C40000204802002070B50F4E0F4D13E029686B6875
:400D8000AC68002202E001C901C30432A242FAD1E868002202E0002102C304328242FAD11035013E002EE9D101F03AF8FFF766FAFEE7C04601000000482D000010B50E4A46
:400DC000136801218B43136000230AE0032B03D89A000A49505800E009489900094A885001332F2BF2D9FFF789F9034A116801230B43136010BDC0460000104000000000D6
:400E0000310D00000000002010B50A2000F0C6FB10BDC04610B500F099F810BD10B500F01FF810BD10B5054A1368802109060B431360FFF7E9FFFFF7EDFF10BD0000254043
:400E400010B5064B1B78002B04D1FFF7E7FF0122024B1A70FFF7E6FF10BDC0466401002070B5204A204B1A600024204B1C60204A204B1A60204B214A13600721204A1160A6
:400E8000204A14600639204A1160204A1360204B1C6004251F4B1D600A2000F089FB03210A2000F0A3FB1C490A2000F08DFB1B4B1C601B4B1C601B4B1C601B4B1C601B4BF7
:400EC0001D601B4B1C601A681A4B1A801A4B1C601A4B1C601A4B1C701A4B1C601A4B1C6070BDC0460B000002000025404000254001000A00480025400700008000032540AC
:400F0000040325401003254044002540000225400402254050002540051C0000880E2540C80E2540480F2540080F2540C80F2540880F25406C010020A80100203C02002022
:400F4000340200203802002030020020064A1168064B0B40902109040B431360044B1A88044B1A607047C04600030240FFFF0FFF6C010020880F254010B500F0F7FD002869
:400F800002D000F0D9FD00E00020054B1A68D8239B001A4203D01A00014B1A60002010BDC00F254010B507238343180000F0E2FA00F0E6FA10BDC0460FB4F0B58DB00124FB
:400FC0008AE0252805D000F0E5FD129B0133129382E05A1C12925B78732B11D1651CA40012AB9C466444246802E000F0D3FD013420780028F9D1129B013312932C006BE0E8
:40100000642B26D1671CA40012AB9C466444266800256C1C0A21300000F0ECFEAD006B46E9500A21300000F05FFE060025000028EFD107E0013CA3006A469B582B4AD05CEF
:4010400000F0A8FD002CF5D1129B013312933C0042E0632B0ED1651CA40012AB9C4664442368FF20184000F095FD129B013312932C0031E0782B2DD1651CA40012AB9C4680
:4010800064442368002000E02000441C0F21194082006E4691511B09F6D1E30703D5A4000023A351841C012C0DD8A300002269465A50013407E0013CA3006A469B580B4AB0
:4010C000D05C00F067FD002CF5D1129B013312932C0001E0002A04D0129B1878002800D06FE70DB0F0BC08BC04B01847AC2B000070B505000C0016000A48FFF75DFF30002B
:40110000FFF75AFF0848FFF757FF2800FFF754FF0648FFF751FF2000FFF74EFF0448FFF74BFF70BDD82B0000042C00001C2C0000242C00007047C0460023436100220383AC
:40114000C361438302704270436043810381C360036120214254836383870364C38704314254010024314A708362C3858385036343634433C25400207047C046F0B54746BF
:4011800080B404000E00836A826B002A06D14269002A06D1002B07D1002507E08025ED0004E08025ED0001E08025ED00002D31D13100012000F024FE071E02D101231D43C9
:4011C00025E0A063A6873100012000F019FE8046031E02D101331D4316E0606126833100012000F00DFE002802D101231D4309E0A062A68500234422A354243AA354238158
:40120000002D07D000F032FE404600F02FFE380000F02CFE280004BC9046F0BD70B504004069002808D000F021FE0023636123836383E361002500E00125A06B002807D05D
:4012400000F014FE0023A363A387E387236401E001231D43A06A002806D000F007FE0023A362A385E38501E001231D43280070BD0023C38744330022C25470470023438398
:4012800020330022C254704710B50400FFF7F6FF2000FFF7EDFF10BD10B50300828F002A07D0806B002806D0D88F824205D9002004E0012002E0012000E00120002853D128
:4012C00044229A5C042A4FD89200284CA2589746012902D00223184346E00122DA879A6B11704422012199543EE0DA8F541CDC879C6BA154DA8F052A36D1996BCA781202F0
:4013000009790A43DA8503D10321443299542BE002214422995427E0DA8F541CDC879C6BA154D98FDA8D0532914203D103214422995419E0914217D90021442299540823E5
:40134000184311E0DA8F541CDC879C6BA154DA8D0C3292B2D98F8A4206D104214422995402E08023DB00184310BDC046502C000010B50022002304E0C45C121992B20133C2
:40138000DBB29CB28C42F7D3504280B210BDC04670B504000378052B01D8002500E04025638980225200934201D9F83A15430C33228B934201D901231D432023E35C002B27
:4013C00002D08023DB001D43002D5DD10123638362691370638B5A1C628322786169CA54638B5A1C628362786169CA54628B531C638363891B0A61698B54638B5A1C62836F
:4014000062896169CA54002308E0628B511C61836168C95C6069815401339BB262899342F3D3638B5A1C6283E27B6169CA54638B5A1C6283A27B6169CA54628B531C6383DF
:40144000E3681B0A61698B54638B5A1C6283227B6169CA5466696189093189B23000FFF787FF638B5A1C6283020AF254638B5A1C62836269D054638B5A1C6283AA226169F9
:40148000CA54A93A2023E254280070BD70B50400FFF77EFF05002023E35C012B02D08023DB001D43002D09D1218B6069FFF742FE00222023E2542000FFF7E0FE280070BDC8
:4014C000F8B504004423C35C042B4ED1816B0B78012B01D1002500E002254B782422A354052B01D940231D438A78230024335A70CA7812020B791A43E28580235B009A4243
:4015000001D9F83B1D43A06A002801D101231D43002D2CD1053100F0BCFCE18D4E1DA36B9C46664433787078B278F7781B0600040343120213433B432363093189B260461B
:40154000FFF716FF337972791B021343984202D080239B001D43B379AA2B01D004231D432000FFF785FE280002E0202000E02800F8BDC046014B18707047C04673000F40BA
:40158000014B1878C0B2704773000F40024B1B68012018407047C0460C002E401F2318401E3B8340014A13607047C04600E100E01F2318401E3B8340014A13607047C046C1
:4015C00080E100E001BE704770B504000D001F2802D90020FFF7F6FF1034A40080239B059C4664442068256070BDC04670B504000E00032902D90020FFF7E4FF1F2C02D97F
:401600000020FFF7DFFF03252540ED00063500F08CFAA408A400074B9C46644421680323AB4099430B003100A9401943216000F080FA70BD00E400E0034A13681B041B0C7E
:4016400002490B43136070470CED00E00400FA0510B5034B1B7B584300F05EFA10BDC046C8000020F0B557464E46C0B483B0040000F05BFA0190E71E2D2F74D83F4B1B7863
:40168000DBB29C4208D83E4B1B78DBB29A463D4B1B78DBB2994631E03B4B1B78DBB29C4208D83A4B1B78DBB29A46394B1B78DBB2994623E0374B1B78DBB29C4208D8364B6E
:4016C0001B78DBB29A46354B1B78DBB2994615E0334B1B78DBB29C4208D8324B1B78DBB29A46314B1B78DBB2994607E02F4B1B78DBB29A462E4B1B78DBB299462D4BDE5D96
:401700002F2E09D92A2C07D919222B4B1A60052000F002FA192503E0274B1D683F231D40B54206D9234BDA5D234B1A60052000F0F3F91F4B9C4664442378DBB21F4A1360C5
:401740001F4B52461A601F4B4A461A600520FFF77FFFB5420AD2174BDA5D174B1A60052000F0DAF902E00020FFF72CFF019800F0E0F903B00CBC91469A46F0BD40F3FF0F0B
:4017800041F3FF0F42F3FF0F43F3FF0F44F3FF0F45F3FF0F46F3FF0F47F3FF0F48F3FF0F49F3FF0F4AF3FF0F4BF3FF0F4CF3FF0F4DF3FF0F642C00002CFF0B4028FF0B4009
:4017C0001CFF0B4020FF0B4010B504000F4A116801230B4313600E4A0E4B1A600E4A1368802109020B431360002809D100200CE00120FFF72DFFFFF7C9FE002804D1013CE6
:40180000002CF5D1102000E0002010BD60F02E400220000078002E4010002E40034B1868C0231B02184000D00120704700010B4010B50D4B1A6801218A431A601A680220AF
:4018400082431A60094A10683024A043203C204310601068093CA043014311601A68802109060A431A6010BD00F02E4000FF2E4070B51D4B1B6801241C40002802D001285E
:4018800016D02BE0184B19680122914319601968022081431960154B19682E3081432038014319601968093881430A431A6018E00D4B1A6802218A431A600C4A1068072568
:4018C000A84301431160116830208143103801431160196801220A431A6002E00020FFF771FE200070BDC04600F02E4000FF2E4010B500F01AF9044A1368C02109020B4303
:40190000136000F016F910BD00010B4010B500F00CF908490A68084B1A408024E40122430A600A6813408022120213430B6000F000F910BD00010B40FF3FFFFF70B50500F6
:4019400000F0F3F80400FFF769FF002803D0FFF7DDFF012100E0002108482840084A1568084B2B40184310601368012901D1FFF7BFFF200000F0DDF870BDC04604040400DB
:4019800010020B40FBFBFBFF10B5244B1B685B0715D5234B5B685B070ED5224B596A042001401F4C62688A4362605A6A82435A629B69002B00D098470420FFF7BFFF174BAB
:4019C0001B685B0518D5164B5B685B0510D5154B596A8022D2001140114842688A434260596A114A0A405A62DB69002B00D098478020C000FFF7A2FF084B1B685B030CD506
:401A0000074B5B685B0304D5064B1B6A002B00D098478020C002FFF791FF10BD10020B40DC00002070010020FFFBFFFF034B1A8801321A805A881018588070479801002004
:401A4000024B00221A805A807047C0469801002010B5064B5B68002B04D004490A88498803489847FFF7ECFF10BDC04698010020942C000070B50D0014001E001D4B5B689F
:401A8000002B00D098471B4B5B68002B01D01A489847A54209D0174B5B68002B24D02A00210016489847002023E03378002B13D0104B5B68002B01D0114898470D4B5B6811
:401AC000002B01D0300098470A4B5B68002B0DD00C48984700200CE0064B5B68002B07D009489847012004E0002002E0002000E0012070BD98010020C82B0000B02C000059
:401B0000D42C000014280000E02C0000014B58607047C046980100200230800803D00138FDD1C046C046C0467047EFF3108072B6704780F310887047094B1A68094B1B68C6
:401B40009A420BD0074B1B680133412B00D10023054AD05CC0B2034A136000E000207047A80100203C020020EC010020074B1B68074A1268934203D3054A1068181A04E085
:401B8000034A10681B1A413318007047A80100203C020020144B1A68144B1B689A4208D1134B1B681F221340082B02D0114B186019E00D4B1A680132402A00D100220B4B42
:401BC0001B689A42FBD002230B490B60C0B20B49885405490A600A4A1268134203D1084A11680B431360704738020020300200200802254040022540800F2540AC010020C0
:401C0000880F254010B5274B1B68002B00D09847254B1B685B071DD5244B1B680133412B00D10023224A1268934205D1214B1B682022214B1A7006E01E4A1268D2B21F49DB
:401C4000CA541A4A13601E4B1B68DB06E4D104221C4B1A601C4B1B689B0721D51B4B1A681B4B1B689A4213D0194B1B680133402B00D10023174AD25CD2B217490A60144A1F
:401C80001360164B1B681F221340082BE6D104E0134A136802218B4313600222114B1A6010BDC04668010020CC0F2540A80100203C0200204003254034020020EC01002067
:401CC00008032540C00F25408C0F25403802002030020020AC0100204002254008022540880F2540800F2540002243088B4274D303098B425FD3030A8B4244D3030B8B4269
:401D000028D3030C8B420DD3FF22090212BA030C8B4202D31212090265D0030B8B4219D300E0090AC30B8B4201D3CB03C01A5241830B8B4201D38B03C01A5241430B8B4236
:401D400001D34B03C01A5241030B8B4201D30B03C01A5241C30A8B4201D3CB02C01A5241830A8B4201D38B02C01A5241430A8B4201D34B02C01A5241030A8B4201D30B0277
:401D8000C01A5241CDD2C3098B4201D3CB01C01A524183098B4201D38B01C01A524143098B4201D34B01C01A524103098B4201D30B01C01A5241C3088B4201D3CB00C01A6E
:401DC000524183088B4201D38B00C01A524143088B4201D34B00C01A5241411A00D20146524110467047FFE701B5002000F006F802BDC0460029F7D076E770477047C04644
:401E000010B5034B0A000100186800F05FF810BD44010020014B18687047C046440100200E4B70B500251E000D4CE41AA410A54204D0AB00F35898470135F8E700F072FFCB
:401E4000084B00251E00084CE41AA410A54204D0AB00F35898470135F8E770BD302D0000302D0000302D0000382D000010B5034B0100186800F038F810BDC046440100208C
:401E8000002310B59A4203D0CC5CC4540133F9E710BD10B5884202D98B18984201D3002305E09B1A013A08D3995C8154FAE7934203D0CC5CC4540133F9E710BD03008218CB
:401EC000934202D019700133FAE770474A4370B51100140000F054F8051E03D022000021FFF7ECFF280070BD70B50500002944D00C1F2368002B00DAE418280000F0D4F862
:401F00001E4A13681100002B02D16360146031E0A3420DD92268A018834203D118685B688218226063600C6024E0A24203D813005A68002AF9D11E689819A0420BD1216829
:401F4000711858181960824214D110685268411819605A600EE0A04202D90C232B6009E021686018824203D1106852684118216062605C60280000F098F870BDA40100207D
:401F8000032370B5CD1C9D43083506000C2D01D20C2501E0002D01DBA94202D90C23336048E0300000F080F8234B1C681A002100002913D00B685B1B0DD40B2B02D90B60DC
:401FC000CC181EE08C4202D1636813601AE04B6863600C0016E00C004968E9E7174C2368002B03D1300000F02BF820602900300000F026F8431C18D00323C41C9C43A042FC
:402000000DD12560300000F050F8200007220B30231D9043C31A0ED05A42E2500BE0211A300000F00DF8431CEBD10C233000336000F03BF8002070BDA4010020A001002067
:40204000002370B5064C050008002360FEF778FE431C03D12368002B00D02B6070BDC046400200200EB410B59DB002A9029008610B48822488604861012040421FABC88138
:40208000084804CBA400006801938C8100F070F80023029A13701DB010BC08BC03B01847FFFFFF7F4401002070477047F0B58E6885B007000C00039201939E4243D8902342
:4020C0008A89DB001A423ED003250969236801985B1A029363695D43EB0F5D19029B6D1001331B18AB4200D91D00530510D529003800FFF745FF061E14D0029A2169FFF784
:40210000BFFEA289194B134080221343A38112E02A00380000F0C5FA061E0CD121693800FFF7E2FE0C23402201203B60A38940421343A38117E0029B2661F618266065615E
:40214000019EED1AA560019BB34200D21E00320003992068FFF79DFE0020A3689B1BA36023689E19266005B0F0BDC0467FFBFFFFF0B59FB0029005938B890F0016001B0648
:4021800010D50B69002B0DD14021FFF7F9FE38603861002804D10C23029A01381360D8E040237B61002306AD6B6120336B761033AB7634002378002B03D1A31B049312D094
:4021C00003E0252BF9D00134F4E7A31B320039000298FFF76BFF431C00D1B4E06A69049B944663446B612378002B00D1ABE00122002352426A6002A95432521801342B600C
:40220000EB60AB601370AB65534E21780522300000F03CFA002807D00123801B83402A68013413432B60EFE72B68DA0604D55322202102A8121811701A0704D553222B21ED
:4022400002A81218117022782A2A03D0099B00200A210EE0059A111D12680591002A01DB099204E05242EA60022213432B6001340BE02278303A092A04D84B4301349B187D
:402280000120F6E7002800D0099323782E2B1ED163782A2B0AD1059B02341A1D1B680592002B01DA01235B42079310E000230A201A0001346B6021783039092904D842432A
:4022C000013452180123F6E7002B00D00792234E21780322300000F0D9F9002806D04023801B83402A68013413432B60217806221B48661C297600F0C9F9002812D0194BBD
:40230000002B06D10722059B073393430833059314E005AB00933A00134B2900029800E000BF07E005AB00933A000F4B2900029800F08AF80390039B013304D06B69039A21
:402340009B186B6135E7BB890B985B0601D5012040421FB0F0BDC046EE2C0000F42C0000F82C000000000000AD200000F7B5170001938A680B6900900C00934200DA130039
:4023800022003B6043321278002A01D001333B6023689B0602D53B6802333B60062523681D401ED0230043331B785A1E9341226892061CD53020E1184331087021005A1CC9
:4023C00045310978A2184332023311700FE022000123193201990098089EB047431C0ED00135E3683A689B1A9D42F0DBDAE72200019943320098089DA847431C02D1012082
:40240000404220E006232068E1683A6803400025042B03D18D1AEB43DB171D40A3682269934201DD9B1AED180027BD420AD0220001231A3201990098089EB047431CDED07E
:402440000137F2E70020FEBDF0B58BB006920A0043320793059004920A7E0C00109B6E2A00D1ABE011D8632A22D009D8002A00D1B5E0582A00D0C5E045310A70814A4FE0C7
:40248000642A1DD0692A1BD0BCE0732A00D1AAE009D86F2A29D0702A00D0B3E0202209680A43226037E0752A1FD0782A33D0A9E00E001A684236111D196013683370A4E079
:4024C00021681A68080606D4490604D5111D19600023D55E02E0111D19601568002D3BDA2D23049A6D42137036E021681A68080606D4490604D51568111D1960ADB202E0C6
:40250000111D196015685F4B227E039308276F2A1DD00A271BE022007821453211705A4A19680392081D226818600D68100602D4500600D5ADB2D30702D520231A43226064
:402540001027002D03D1202322689A4322602300002243331A7002E00A274A4B03936368A360002B09DB0422216891432160002D05D1049E002B11D07BE0002D79D0049E6F
:4025800028003900FFF736FC039B013E5B5C280033703900FFF7A8FB051EF1D1082F09D12368DB0706D563682269934202DC3023013E3370049B9B1B23612BE009681A680E
:4025C000080607D4490605D5111D19601368A28A1A8004E0111D1960136862691A600023049E236116E01A68111D1960166800216268300000F04AF8002801D0801B60600F
:40260000636803E0260042363270012323610023049A1370079B09AA00932100069B0598FFF7A4FE431C02D10120404227E02369320006990598079DA847431CF4D02368CA
:4026400000259B070FD4099BE068984217DA180015E022000123193206990598079EB047431CE1D00135E368099A9B1A9D42F0DBE9E72600039B42361B7833708EE70BB07E
:40268000F0BDC046FF2C0000102D0000C9B28218904204D003788B4202D00130F8E700207047F8B506000C001500002904D11100FFF766FC040018E0002A03D1FFF714FC08
:4026C0002C0012E000F013F885420ED929003000FFF756FC071E07D021002A00FFF7D0FB21003000FFF700FC3C002000F8BD0B1F1A68101F002A04DA891804390B68D018FA
:402700000438704700000000010305000105CC000301030500000000FF22AA001B5B324A1B5B313B314800002020202020205041434B45542054455354494E4720554E49E5
:4027400054205445535453200000000053657020313720323031380031363A30303A3331000000000D0A2A2A2A204275666665722067656E65726174696F6E202A2A2A0DF2
:402780000A0000004E6F726D616C00004C6F6E67000000004D756C7469706C6520437265617465000D0A2A2A2A20427566666572204465737472756374696F6E202A2A2AF5
:4027C0000D0A00004E6F6E2D67656E6572617465640000004661696C65642047656E00004D756C7469706C652064657374726F79000000000D0A2A2A2A204D656D726F7998
:40280000204C65616B2047656E65726174696F6E202A2A2A0D0A00005265706561742047656E65726174696F6E7300000D0A2A2A2A20436F6E737472756374205061636B01
:4028400065742054657374205375697465202D205374617465204572726F7273202A2A2A0D0A00004261736963205061636B6574000000004D6F64756C652049443A2031DD
:40288000300000004D6F64756C652049443A2030000000004E6F205061796C6F616400004C6F6E67205061796C6F6164202D206E6F206D656D6F7279000000004C6F6E6797
:4028C000205061796C6F6164202D206D6178207061796C6F61642C206D656D6F727900000D0A2A2A2A20436F6E737472756374205061636B657420546573742053756974D5
:4029000065202D205061636B65742056616C756573202A2A2A0D0A0053696D706C65205061636B65740000004E6F207061796C6F61640000526573706F6E736520466C61FD
:4029400067000000526573706F6E736520466C61672032000D0A2A2A2A2053656E64205061636B6574202A2A2A0D0A0053656E64204261736963205061636B657400000045
:4029800053656E64204261736963205061636B65742032000D0A2A2A2A2050726F636573732052582042797465202D205374617465204572726F7273202A2A2A0D0A0000EF
:4029C0004E6F20427566666572730000427566666572206F766572666C6F770056616C696420537461727400696E76616C69642053746172740000000D0A2A2A2A205061A6
:402A0000636B65742070617273696E67202D205374617465204572726F7273202A2A2A0D0A00000056616C6964207061636B6574202D206E6F207061796C6F61642000001F
:402A400056616C6964207061636B65742000000053686F7274207061636B657400000000496E76616C69642073746172742073796D000000496E76616C6964204D6F6475FC
:402A80006C65000042616420436865636B73756D00000000496E76616C696420456E642053796D626F6C00000D0A2A2A2A205061636B65742070617273696E67202D205079
:402AC00061636B65742056616C756573202A2A2A0D0A00004E6F207061796C6F616420005061796C6F6164207061796C6F61642000000000507265737320616E79206B6549
:402B00007920746F2072652D72756E2074657374730D0A004D69736D6174636820617420696E646578205B25645D3A206578706563743A203078253032782C20676F743ABE
:402B400020307825303278005061636B65747320646F206E6F74206D617463680000000000300F40000400400F4000047307DB04DF0169806A086B0887088A048D405F10BC
:402B80008710D620E2105401610288018D02D604D802E001E408000001000F4002320F4006330F4004410F4008430F4030313233343536373839414243444546000000001A
:402BC000436F6D70696C65643A20000031363A30303A3333000000002A2A2A2A2A2A2A2A2A2A2A2A2A2A2A2A2A2A2A2A2A2A2A2A2A2A2A2A2A2A2A2A2A2A2A2A2A2A0D0A5A
:402C00002A2000000D0A2A0D0A2A20436F6D70696C65642061743A2000000000206F6E20000000000D0A2A2A2A2A2A2A2A2A2A2A2A2A2A2A2A2A2A2A2A2A2A2A2A2A2A2AB4
:402C40002A2A2A2A2A2A2A2A2A2A2A2A0D0A0000D0120000EA120000181300004413000062130000030405060708090A0B0C0E0F101112131415161718191B1C1D1E1F208A
:402C800021222325262728292A2B2E2F30313233343500000D0A0A3E205061737365642025642F25642074657374730D0A0000004661696C65642C2045787065637465649D
:402CC0003A20307825782C20476F743A20307825780D0A004661696C65643A20000000005061737365640D0A000000004300232D302B2000686C4C00656667454647003091
:402D0000313233343536373839414243444546003031323334353637383961626364656600000000F8B5C046F8BC08BC9E46704745020000BD0D0000F8B5C046F8BC08BCBD
:402D40009E4670471D020000582D0000C000002088000000000100000000000048020020010000000000E02EC05D00001800000000366E01F000000004040400000000005C
:402D800000000000000000000000000000000000000000000000000000000000EC2C00000000000000000000000000000000000000000000000000000000000000000000FB
:402DC00000000000000000000000000000000000000000000000000000000000E40000200000000000000000000000000000000000000000000000000000000000000000CF
:402E00000000000000000000000000000000000000000000000000000000000000000000000000000000000000000000000000000000000000000000000000000000000092
:402E40000000000000000000000000000000000000000000000000000000000000000000000000000000000000000000000000000000000000000000000000000000000052
:402E80000000000000000000000000000000000000000000000000000000000000000000000000000000000000000000000000000000000000000000000000000000000012
:402EC00000000000000000000000000000000000000000000000000000000000000000000000000000000000000000000000000000000000000000000000000000000000D2
:020000040003F7
:0200000490303A
:02000000B48AC0
:0200000490402A
:4000000000000000000000000000000000000000000000000000000000000000000000000000000000000000000000000000000000000000000000000000000000000000C0
:400040000000000000000000000000000000000000000000000000000000000000000000000000000000000000000000000000000000000000000000000000000000000080
:0200000490501A
:0C00000000021A6D11AA00011A7BC63420
:0200000490600A
:0100000001FE
:00000001FF