:400000000080002011000000D5050000D505000010B500F001FBC04670B5244D12232B6001F088F8012001F0A5F8182000F09CFF1F4A204B1A60204A116802230B43136054
:400040001E4A1F4B1A6000241E4B1C601E4A136808218B431360FA20C00001F037F81B4800F078FF80225201194B1A60194B1A4919601A490A601A4A1A6080221206194B3E
:400080001A60194B1C604022184B1A600132184B1A601849082000F001FF082000F0E8FE154B1C6011232B6070BDC046300010400600008004010B4078002E40666600004A
:4000C0007C002E4064F02E406CF02E40DC050000000301400000014040FF00800403014041FF008008010B4000010B4008010140040101408D1200000C020B4010B572B648
:4001000000222F4B1A6000240FE02E486200131959000B00411889881A5AC31858880004104300F051FA0134E4B2012CEDD9254801000C31383000F01DFAEE221206224B96
:400140001A60224A224B1A60224A234B1A6099231B04224A1360224A1360C0210904214A1160214A1360214A214B1A6021490B783C22934314221343DBB20B701E4A117826
:4001800016230B43DBB21370D82212041B4B1A6028221B4B1A60C22292021A4B1A602023194A1360A221194A11601949194A1160194A1360FFF730FF00F0F6F910BDC046A4
:4001C0006CF02E4038250000000002400030900000010240390099300003024000500F4010500F4018500F4030500F4000000C8038500F4001700F4000700F40080004404A
:400200000001044008010440180104400003044021108300080304401803044010B5064C2378002B07D1054B002B02D0044800E000BF0123237010BD48010020000000004C
:4002400040230000084B10B5002B03D00749084800E000BF07480368002B00D110BD064B002BFBD09847F9E7000000004C01002040230000C00000200000000070B5C4B0F4
:4002800062B6444801F0AAF800F02CFA01F0C8F8022000F0D9FA404800F0E0FA3F4A4049404800F077FB404800F0D8FA3F4800F0D5FA3F4800F0D2FA002303E004AAD3545F
:4002C0000133DBB2FF2BF9D1012204A9394800F087F801F02DF8082204A9374800F080F801F026F8402204A9344800F079F801F01FF8892204A9324800F072F801F018F885
:40030000304800F0ABFA04A800F066FB892104A800F084FB2C4904A800F0E2F801F008F804AD01266E702949280000F0D9F800F0FFFF6E7001AC0A220021200001F0DCFB53
:400340002670FF236370333BA3701133E3709F3B2371393B6B816868052201A901F0AEFB1B4904A800F0BCF800F0E2FF04A800F0BDFB184800F072FA174B01220121174836
:4003800000F0E0FF00F04AFAC0B22028FAD100F0BDFDF7E75D0800004423000050230000682300007423000080230000B4230000DC230000F82300000024000008240000E8
:4003C00014240000302400005024000068240000742400007C240000A0240000B0240000F0B5474680B48EB003900E0090461100300001F02DF90A2000F094FD002407E078
:4004000001F010F9C5B2375DBD4206D10134E4B2A3B29845F4D8012600E00026002304932422002105A801F067FB002E06D100943B002A00064904A801F032FC04AB0122E0
:400440000121039800F07EFF0EB004BC9046F0BDF4240000F0B557464E464546E0B4040003780A789A1A5642564143784A789A1A504250418146238908891B1A5A425A419C
:40048000904665894B89EB1A5A425A419246A78988893F1A7B427B419C4623690A699F1A784278414A46324043461A40534613406246134018400BD10DE06268D25C4E68D5
:4004C000F65C921B57425741384001339BB200E00023AB42F1D31CBC90469946A246F0BDF0B589B00500019100F036FB280000F041FC0A2000F016FD00F0BCFFC6B200249E
:40050000002708E001F08EF8C1B2280000F030FB07430134E4B2B442F4D3002F03D1280000F042FC0743280024302900FFF792FF0400002303931022002104A801F0DCFA5B
:40054000002C09D103A90A480B00020013CA13C303CA03C312781A70280000F003FB03AB00223900019800F0EDFE09B0F0BDC04620250000F0B50025002711E0BB00C65811
:40058000F3B2FF22964308E06A008A181478A419527822700135013BDBB2002BF4D10137042FEBD9F0BDC0460323044A1360044A13600022034B1A607047C0463000304043
:4005C00030003140000E3F4010B50A00002101F093FA10BD10B501F03BFA03680C2B00D1FEE7FEE710B50300094A1068C318094A9A1A8021C9008A4202DC054A136005E03A
:4006000001F026FA0C2303600120404210BDC046C40000201004002070B50F4E0F4D13E029686B68AC68002202E001C901C30432A242FAD1E868002202E0002102C3043259
:400640008242FAD11035013E002EE9D101F006FAFFF714FEFEE7C046010000002427000010B50E4A136801218B43136000230AE0032B03D89A000A49505800E009489900DF
:40068000094A885001332F2BF2D9FFF737FD034A116801230B43136010BDC0460000104000000000D50500000000002010B50A2000F0DEFB10BDC04610B500F099F810BD26
:4006C00010B500F01FF810BD10B5054A1368802109060B431360FFF7E9FFFFF7EDFF10BD0000254010B5064B1B78002B04D1FFF7E7FF0122024B1A70FFF7E6FF10BDC04642
:400700006401002070B5204A204B1A600024204B1C60204A204B1A60204B214A13600721204A1160204A14600639204A1160204A1360204B1C6004251F4B1D600A2000F034
:40074000A1FB03210A2000F0BBFB1C490A2000F0A5FB1B4B1C601B4B1C601B4B1C601B4B1C601B4B1D601B4B1C601A681A4B1A801A4B1C601A4B1C601A4B1C701A4B1C6068
:400780001A4B1C6070BDC0460B080002000025404000254001000A004800254007000080000325400403254010032540440025400002254004022540500025405D170000D7
:4007C000880E2540C80E2540480F2540080F2540C80F2540880F25406C010020DC02002004040020FC03002000040020F8030020064A1168064B0B40902109040B4313605E
:40080000044B1A88044B1A607047C04600030240FFFF0FFF6C010020880F254010B500F051FF002802D000F033FF00E00020054B1A68D8239B001A4203D01A00014B1A60CF
:40084000002010BDC00F254010B507238343180000F0FAFA00F0FEFA10BDC0460FB4F0B58DB001248AE0252805D000F03FFF129B0133129382E05A1C12925B78732B11D112
:40088000651CA40012AB9C466444246802E000F02DFF013420780028F9D1129B013312932C006BE0642B26D1671CA40012AB9C466444266800256C1C0A21300001F0B8F85B
:4008C000AD006B46E9500A21300001F02BF8060025000028EFD107E0013CA3006A469B582B4AD05C00F002FF002CF5D1129B013312933C0042E0632B0ED1651CA40012ABBE
:400900009C4664442368FF20184000F0EFFE129B013312932C0031E0782B2DD1651CA40012AB9C4664442368002000E02000441C0F21194082006E4691511B09F6D1E307FD
:4009400003D5A4000023A351841C012C0DD8A300002269465A50013407E0013CA3006A469B580B4AD05C00F0C1FE002CF5D1129B013312932C0001E0002A04D0129B187885
:40098000002800D06FE70DB0F0BC08BC04B018478425000070B505000C0016000A48FFF75DFF3000FFF75AFF0848FFF757FF2800FFF754FF0648FFF751FF2000FFF74EFF8D
:4009C0000448FFF74BFF70BDB4250000E0250000F82500000026000000238363002283870364C38724214254010024314A708362C3858385038643634421425443610383C3
:400A0000C361438302704270436043810381838103612033C25400207047C046F8B54F464646C0B404000E00836A4268816B002908D14169002908D1002B09D1002A0AD180
:400A400000250AE08025ED0007E08025ED0004E08025ED0001E08025ED00002D40D13100012000F0EBFF071E02D101231D4334E0A063A6873100012000F0E0FF8046031E41
:400A800002D101331D4325E0606126833100012000F0D4FF8146031E02D101331D4316E0A062A68500224423E2543100012000F0C5FF002802D101231D4306E06060268148
:400AC00000222023E254002D0AD000F0EDFF484600F0EAFF404600F0E7FF380000F0E4FF28000CBC90469946F8BDC04670B504004069002808D000F0D7FF00236361238325
:400B00006383E361002500E00125A06B002807D000F0CAFF0023A363A387E387236401E001231D43A06A002806D000F0BDFF0023A362A385E38501E001231D436068002833
:400B400006D000F0B1FF002363602381638101E001231D43280070BD0023C38744330022C25470470023438320330022C254704710B50300828F002A07D0806B002806D016
:400B8000D88F824205D9002004E0012002E0012000E00120002853D144229A5C042A4FD89200284CA2589746012902D00223184346E00122DA879A6B117044220121995408
:400BC0003EE0DA8F541CDC879C6BA154DA8F042A36D1996B8A781202C9780A43DA8503D10321443299542BE002214422995427E0DA8F541CDC879C6BA154D98FDA8D0432DA
:400C0000914203D103214422995419E0914217D90021442299540823184311E0DA8F541CDC879C6BA154DA8D093292B2D98F8A4206D104214422995402E08023DB00184393
:400C400010BDC0462C2600007F2318401F280FD90300203BDBB21F2B0CD90300403BDBB21F2B09D96038C0B21F2809D8032304E0002302E0012300E002230B70002000E0F0
:400C80001F20704710B50022002304E0C45C121992B20133DBB29CB28C42F7D3504280B210BDC04670B50400438980225200934201D8002500E008250933228B934201D922
:400CC00001231D432023E35C002B02D08023DB001D43002D4BD10123638362691370638B5A1C628362786169CA54628B531C638363891B0A61698B54638B5A1C6283628937
:400D00006169CA54002308E0628B511C61836168C95C6069815401339BB262899342F3D3628B531C6383A3891B0A61698B54638B5A1C6283227B6169CA54666961890631F5
:400D400089B23000FFF79EFF638B5A1C6283020AF254638B5A1C62836269D054638B5A1C6283AA226169CA54A93A2023E254280070BDC04670B50400FFF794FF05002023F4
:400D8000E35C012B02D08023DB001D43002D09D1618B606900F05CFC00222023E2542000FFF7E0FE280070BD70B505004423C35C042B45D1836B1A78012A01D1002400E0BA
:400DC00002245878290024314870FFF73DFF0443A96B8A781202CB781A43EA8580235B009A4201D9F83B1C43A86A002801D101231C43002C26D1043100F069FEE98D0E1DF0
:400E0000AB6B9C466644337872781B0213432B86063189B26046FFF735FFB378F2781B021343984202D080239B001C433379AA2B01D004231C432800FFF78EFE200002E040
:400E4000202000E0200070BD014B18707047C04673000F40014B1878C0B2704773000F40024B1B68012018407047C0460C002E401F2318401E3B8340014A13607047C0463A
:400E800000E100E01F2318401E3B8340014A13607047C04680E100E001BE704770B504000D001F2802D90020FFF7F6FF1034A40080239B059C4664442068256070BDC04631
:400EC00070B504000E00032902D90020FFF7E4FF1F2C02D90020FFF7DFFF03252540ED00063500F0CEFBA408A400074B9C46644421680323AB4099430B003100A940194310
:400F0000216000F0C2FB70BD00E400E0034A13681B041B0C02490B43136070470CED00E00400FA0510B5040006E0084B586800F09FFB074B9C46644480231B029C42F4D853
:400F4000024B9868604300F093FB10BDC80000200080FFFF10B5034B1B7B584300F088FB10BDC046C8000020F0B557464E46C0B483B0040000F085FB0190E71E2D2F74D82F
:400F80003F4B1B78DBB29C4208D83E4B1B78DBB29A463D4B1B78DBB2994631E03B4B1B78DBB29C4208D83A4B1B78DBB29A46394B1B78DBB2994623E0374B1B78DBB29C42B9
:400FC00008D8364B1B78DBB29A46354B1B78DBB2994615E0334B1B78DBB29C4208D8324B1B78DBB29A46314B1B78DBB2994607E02F4B1B78DBB29A462E4B1B78DBB29946EF
:401000002D4BDE5D2F2E09D92A2C07D919222B4B1A60052000F02CFB192503E0274B1D683F231D40B54206D9234BDA5D234B1A60052000F01DFB1F4B9C4664442378DBB29E
:401040001F4A13601F4B52461A601F4B4A461A600520FFF77FFFB5420AD2174BDA5D174B1A60052000F004FB02E00020FFF714FF019800F00AFB03B00CBC91469A46F0BD37
:4010800040F3FF0F41F3FF0F42F3FF0F43F3FF0F44F3FF0F45F3FF0F46F3FF0F47F3FF0F48F3FF0F49F3FF0F4AF3FF0F4BF3FF0F4CF3FF0F4DF3FF0F402600002CFF0B406B
:4010C00028FF0B401CFF0B4020FF0B4010B504000F4A116801230B4313600E4A0E4B1A600E4A1368802109020B431360002809D100200CE00120FFF72DFFFFF7B1FE0028A5
:4011000004D1013C002CF5D1102000E0002010BD60F02E400220000078002E4010002E40034B1868C0231B02184000D00120704700010B4010B50D4B1A6801218A431A6048
:401140001A68022082431A60094A10683024A043203C204310601068093CA043014311601A68802109060A431A6010BD00F02E4000FF2E4070B51D4B1B6801241C400028BC
:4011800002D0012816D02BE0184B19680122914319601968022081431960154B19682E3081432038014319601968093881430A431A6018E00D4B1A6802218A431A600C4A18
:4011C00010680725A84301431160116830208143103801431160196801220A431A6002E00020FFF759FE200070BDC04600F02E4000FF2E4010B500F044FA044A1368C021AC
:4012000009020B43136000F040FA10BD00010B4010B500F036FA08490A68084B1A408024E40122430A600A6813408022120213430B6000F02AFA10BD00010B40FF3FFFFF4D
:4012400070B5050000F01DFA0400FFF769FF002803D0FFF7DDFF012100E0002108482840084A1568084B2B40184310601368012901D1FFF7BFFF200000F007FA70BDC0466C
:401280000404040010020B40FBFBFBFF10B5244B1B685B0715D5234B5B685B070ED5224B596A042001401F4C62688A4362605A6A82435A629B69002B00D098470420FFF7C6
:4012C000BFFF174B1B685B0518D5164B5B685B0510D5154B596A8022D2001140114842688A434260596A114A0A405A62DB69002B00D098478020C000FFF7A2FF084B1B682C
:401300005B030CD5074B5B685B0304D5064B1B6A002B00D098478020C002FFF791FF10BD10020B40DC00002070010020FFFBFFFF034B1A8801321A805A8810185880704785
:401340009801002070B50D0014001E001D4B5B68002B00D098471B4B5B68002B01D01A489847A54209D0174B5B68002B24D02A00210016489847002023E03378002B13D07D
:40138000104B5B68002B01D0114898470D4B5B68002B01D0300098470A4B5B68002B0DD00C48984700200CE0064B5B68002B07D009489847012004E0002002E0002000E009
:4013C000012070BD98010020A02500008C260000B0260000F4230000BC260000014B58607047C0469801002010B50920FFF740FD10BDC04610B500F0FFF810BD10B500F004
:4014000085F810BD10B5054A1368802109060B431360FFF7E9FFFFF7EDFF10BD0000244010B5064B1B78002B04D1FFF7E7FF0122024B1A70FFF7E6FF10BDC046A001002083
:40144000094B1A68094B1B689A420BD0074B1B6801338A2B00D10023054AD05CC0B2034A136000E000207047480200204002002050020020074B1B68074A1268934203D369
:40148000054A1068181A04E0034A10681B1A8A33180070474802002040020020144B1A68144B1B689A4208D1134B1B681F221340102B02D0114B186019E00D4B1A68013229
:4014C000892A00D100220B4B1B689A42FBD002230B490B60C0B20B49885405490A600A4A1268134203D1084A11680B43136070474C02002044020020080224404002244066
:40150000800F2440B4010020880F244070B5204A204B1A600024204B1C60204A204B1A60204B214A13600721204A1160204A14600639204A1160204A1360204B1C600425E9
:401540001F4B1D600920FFF79DFC03210920FFF7B7FC1C490920FFF7A1FC1B4B1C601B4B1C601B4B1C601B4B1C601B4B1D601B4B1C601A681A4B1A801A4B1C601A4B1C6025
:401580001A4B1C701A4B1C601A4B1C6070BDC0460B080002000024404000244001000A00480024400700008000032440040324401003244044002440000224400402244029
:4015C0005000244041180000880E2440C80E2440480F2440080F2440C80F2440880F2440A801002048020020400200203D0200204C02002044020020064A1168064B0B4011
:40160000902109040B431360044B1A88044B1A607047C04600010240FFFF0FFFA8010020880F244010B5FFF725FF002802D0FFF707FF00E00020054B1A68D8239B001A4208
:4016400003D01A00014B1A60002010BDC00F244070B505000E00002405E02878FFF71EFF01350134E4B2A3B2B342F6D370BDC0460230800803D00138FDD1C046C046C046B6
:401680007047EFF3108072B6704780F310887047094B1A68094B1B689A420BD0074B1B6801338A2B00D10023054AD05CC0B2034A136000E000207047DC02002004040020C0
:4016C0006C030020074B1B68074A1268934203D3054A1068181A04E0034A10681B1A8A3318007047DC02002004040020144B1A68144B1B689A4208D1134B1B681F2213409A
:40170000102B02D0114B186019E00D4B1A680132892A00D100220B4B1B689A42FBD002230B490B60C0B20B49885405490A600A4A1268134203D1084A11680B431360704724
:4017400000040020F80300200802254040022540800F2540E0020020880F254010B5274B1B68002B00D09847254B1B685B071DD5244B1B6801338A2B00D10023224A126892
:40178000934205D1214B1B682022214B1A7006E01E4A1268D2B21F49CA541A4A13601E4B1B68DB06E4D104221C4B1A601C4B1B689B0721D51B4B1A681B4B1B689A4213D013
:4017C000194B1B680133892B00D10023174AD25CD2B217490A60144A1360164B1B681F221340102BE6D104E0134A136802218B4313600222114B1A6010BDC0466801002098
:40180000CC0F2540DC0200200404002040032540FC0300206C03002008032540C00F25408C0F254000040020F8030020E00200204002254008022540880F2540800F254001
:4018400010B5274B1B68002B00D09847254B1B685B071DD5244B1B6801338A2B00D10023224A1268934205D1214B1B682022214B1A7006E01E4A1268D2B21F49CA541A4AD0
:4018800013601E4B1B68DB06E4D104221C4B1A601C4B1B689B0721D51B4B1A681B4B1B689A4213D0194B1B680133892B00D10023174AD25CD2B217490A60144A1360164B48
:4018C0001B681F221340102BE6D104E0134A136802218B4313600222114B1A6010BDC046A4010020CC0F24404802002040020020400324403D02002050020020080324403B
:40190000C00F24408C0F24404C02002044020020B40100204002244008022440880F2440800F2440002243088B4274D303098B425FD3030A8B4244D3030B8B4228D3030C68
:401940008B420DD3FF22090212BA030C8B4202D31212090265D0030B8B4219D300E0090AC30B8B4201D3CB03C01A5241830B8B4201D38B03C01A5241430B8B4201D34B03E2
:40198000C01A5241030B8B4201D30B03C01A5241C30A8B4201D3CB02C01A5241830A8B4201D38B02C01A5241430A8B4201D34B02C01A5241030A8B4201D30B02C01A5241F0
:4019C000CDD2C3098B4201D3CB01C01A524183098B4201D38B01C01A524143098B4201D34B01C01A524103098B4201D30B01C01A5241C3088B4201D3CB00C01A5241830881
:401A00008B4201D38B00C01A524143088B4201D34B00C01A5241411A00D20146524110467047FFE701B5002000F006F802BDC0460029F7D076E770477047C04610B5034B12
:401A40000A000100186800F05FF810BD44010020014B18687047C046440100200E4B70B500251E000D4CE41AA410A54204D0AB00F35898470135F8E700F042FE084B00255B
:401A80001E00084CE41AA410A54204D0AB00F35898470135F8E770BD0C2700000C2700000C2700001427000010B5034B0100186800F038F810BDC04644010020002310B588
:401AC0009A4203D0CC5CC4540133F9E710BD10B5884202D98B18984201D3002305E09B1A013A08D3995C8154FAE7934203D0CC5CC4540133F9E710BD03008218934202D0D0
:401B000019700133FAE770474A4370B51100140000F054F8051E03D022000021FFF7ECFF280070BD70B50500002944D00C1F2368002B00DAE418280000F0D4F81E4A1368E9
:401B40001100002B02D16360146031E0A3420DD92268A018834203D118685B688218226063600C6024E0A24203D813005A68002AF9D11E689819A0420BD1216871185818D7
:401B80001960824214D110685268411819605A600EE0A04202D90C232B6009E021686018824203D1106852684118216062605C60280000F098F870BDB0010020032370B5E3
:401BC000CD1C9D43083506000C2D01D20C2501E0002D01DBA94202D90C23336048E0300000F080F8234B1C681A002100002913D00B685B1B0DD40B2B02D90B60CC181EE009
:401C00008C4202D1636813601AE04B6863600C0016E00C004968E9E7174C2368002B03D1300000F02BF820602900300000F026F8431C18D00323C41C9C43A0420DD125603E
:401C4000300000F050F8200007220B30231D9043C31A0ED05A42E2500BE0211A300000F00DF8431CEBD10C233000336000F03BF8002070BDB0010020AC010020002370B52E
:401C8000064C050008002360FEF7ACFC431C03D12368002B00D02B6070BDC046080400200EB410B59DB002A9029008610B48822488604861012040421FABC881084804CB29
:401CC000A400006801938C8100F070F80023029A13701DB010BC08BC03B01847FFFFFF7F4401002070477047F0B58E6885B007000C00039201939E4243D890238A89DB0037
:401D00001A423ED003250969236801985B1A029363695D43EB0F5D19029B6D1001331B18AB4200D91D00530510D529003800FFF745FF061E14D0029A2169FFF7BFFEA2894D
:401D4000194B134080221343A38112E02A00380000F0C5FA061E0CD121693800FFF7E2FE0C23402201203B60A38940421343A38117E0029B2661F61826606561019EED1A64
:401D8000A560019BB34200D21E00320003992068FFF79DFE0020A3689B1BA36023689E19266005B0F0BDC0467FFBFFFFF0B59FB0029005938B890F0016001B0610D50B6959
:401DC000002B0DD14021FFF7F9FE38603861002804D10C23029A01381360D8E040237B61002306AD6B6120336B761033AB7634002378002B03D1A31B049312D003E0252B7E
:401E0000F9D00134F4E7A31B320039000298FFF76BFF431C00D1B4E06A69049B944663446B612378002B00D1ABE00122002352426A6002A95432521801342B60EB60AB60AC
:401E40001370AB65534E21780522300000F03CFA002807D00123801B83402A68013413432B60EFE72B68DA0604D55322202102A8121811701A0704D553222B2102A8121833
:401E8000117022782A2A03D0099B00200A210EE0059A111D12680591002A01DB099204E05242EA60022213432B6001340BE02278303A092A04D84B4301349B180120F6E717
:401EC000002800D0099323782E2B1ED163782A2B0AD1059B02341A1D1B680592002B01DA01235B42079310E000230A201A0001346B6021783039092904D84243013452184D
:401F00000123F6E7002B00D00792234E21780322300000F0D9F9002806D04023801B83402A68013413432B60217806221B48661C297600F0C9F9002812D0194B002B06D11D
:401F40000722059B073393430833059314E005AB00933A00134B2900029800E000BF07E005AB00933A000F4B2900029800F08AF80390039B013304D06B69039A9B186B6168
:401F800035E7BB890B985B0601D5012040421FB0F0BDC046CA260000D0260000D426000000000000E91C0000F7B5170001938A680B6900900C00934200DA130022003B6005
:401FC00043321278002A01D001333B6023689B0602D53B6802333B60062523681D401ED0230043331B785A1E9341226892061CD53020E1184331087021005A1C4531097853
:40200000A2184332023311700FE022000123193201990098089EB047431C0ED00135E3683A689B1A9D42F0DBDAE72200019943320098089DA847431C02D10120404220E0BA
:4020400006232068E1683A6803400025042B03D18D1AEB43DB171D40A3682269934201DD9B1AED180027BD420AD0220001231A3201990098089EB047431CDED00137F2E7B3
:402080000020FEBDF0B58BB006920A0043320793059004920A7E0C00109B6E2A00D1ABE011D8632A22D009D8002A00D1B5E0582A00D0C5E045310A70814A4FE0642A1DD021
:4020C000692A1BD0BCE0732A00D1AAE009D86F2A29D0702A00D0B3E0202209680A43226037E0752A1FD0782A33D0A9E00E001A684236111D196013683370A4E021681A68AD
:40210000080606D4490604D5111D19600023D55E02E0111D19601568002D3BDA2D23049A6D42137036E021681A68080606D4490604D51568111D1960ADB202E0111D1960ED
:4021400015685F4B227E039308276F2A1DD00A271BE022007821453211705A4A19680392081D226818600D68100602D4500600D5ADB2D30702D520231A4322601027002D6B
:4021800003D1202322689A4322602300002243331A7002E00A274A4B03936368A360002B09DB0422216891432160002D05D1049E002B11D07BE0002D79D0049E2800390036
:4021C000FFF736FC039B013E5B5C280033703900FFF7A8FB051EF1D1082F09D12368DB0706D563682269934202DC3023013E3370049B9B1B23612BE009681A68080607D44A
:40220000490605D5111D19601368A28A1A8004E0111D1960136862691A600023049E236116E01A68111D1960166800216268300000F04AF8002801D0801B6060636803E00D
:40224000260042363270012323610023049A1370079B09AA00932100069B0598FFF7A4FE431C02D10120404227E02369320006990598079DA847431CF4D0236800259B0775
:402280000FD4099BE068984217DA180015E022000123193206990598079EB047431CE1D00135E368099A9B1A9D42F0DBE9E72600039B42361B7833708EE70BB0F0BDC04656
:4022C000DB260000EC260000C9B28218904204D003788B4202D00130F8E700207047F8B506000C001500002904D11100FFF766FC040018E0002A03D1FFF714FC2C0012E0B6
:4023000000F013F885420ED929003000FFF756FC071E07D021002A00FFF7D0FB21003000FFF700FC3C002000F8BD0B1F1A68101F002A04DA891804390B68D01804387047E8
:40234000000000001B5B324A1B5B313B3148000020202020202053656C66205061636B6574205465737420004F637420203320323031380030313A32303A3335000000004B
:402380000D0A44657669636520696D75556172742052582026205458206D75737420626520776972656420746F6765746865720D0A000000507265737320277370616365CF
:4023C0002720746F20726573657420746865206465766963650D0A0D0A0000000D0A2A2A2A2053656C6620554152542054657374202A2A2A0D0A000031204279746500005C
:4024000038204279746573003634204279746573000000007061636B6574735F4C454E5F424C4F434B5F5041434B4554000000000D0A2A2A2A2053656E64205061636B655F
:40244000742054657374202A2A2A0D0A00000000556E496E697469616C697A6564205061636B6574000000004E657720636F6D6D616E64005061796C6F6164000D0A2A2A64
:402480002A2020526573706F6E64205061636B65742054657374202A2A2A0D0A0000000040544F444F20496D706C656D656E740053656C6620526573706F6E640000000024
:4024C0004D69736D6174636820617420696E646578205B25645D3A206578706563743A203078253032782C20676F743A203078253032780052656365697665643A20307874
:4025000025782C2077616E7465643A203078257820617420706F736974696F6E202564005061636B65747320646F206E6F74206D617463680000000000300F40000400403E
:402540000F4000047307DB04DF0169806A086B0887088A048D405F108710D620E2105401610288018D02D604D802E001E408000001000F4002320F4006330F4004410F40E9
:4025800008430F403031323334353637383941424344454600000000436F6D70696C65643A20000030313A30363A353700000000200000002A2A2A2A2A2A2A2A2A2A2A2A99
:4025C0002A2A2A2A2A2A2A2A2A2A2A2A2A2A2A2A2A2A2A2A2A2A2A2A2A2A0D0A2A2000000D0A2A0D0A2A20436F6D70696C65642061743A2000000000206F6E2000000000FB
:402600000D0A2A2A2A2A2A2A2A2A2A2A2A2A2A2A2A2A2A2A2A2A2A2A2A2A2A2A2A2A2A2A2A2A2A2A2A2A2A2A0D0A0000A80B0000C20B0000F00B00001C0C00003A0C000047
:40264000030405060708090A0B0C0E0F101112131415161718191B1C1D1E1F2021222325262728292A2B2E2F30313233343500000D0A0A3E205061737365642025642F258E
:40268000642074657374730D0A0000004661696C65642C2045787065637465643A20307825782C20476F743A20307825780D0A004661696C65643A20000000005061737388
:4026C00065640D0A000000004300232D302B2000686C4C006566674546470030313233343536373839414243444546003031323334353637383961626364656600000000C4
:40270000F8B5C046F8BC08BC9E4670474502000061060000F8B5C046F8BC08BC9E4670471D02000038270000C000002088000000C80200000000000000000000100400207B
:40274000010000000000E02EC05D00001800000000366E01F0000000040404000000000000000000000000000000000000000000000000000000000000000000C826000086
:40278000000000000000000000000000000000000000000000000000000000000000000000000000000000000000000000000000000000000000000000000000E400002015
:4027C00000000000000000000000000000000000000000000000000000000000000000000000000000000000000000000000000000000000000000000000000000000000D9
:402800000000000000000000000000000000000000000000000000000000000000000000000000000000000000000000000000000000000000000000000000000000000098
:402840000000000000000000000000000000000000000000000000000000000000000000000000000000000000000000000000000000000000000000000000000000000058
:402880000000000000000000000000000000000000000000000000000000000000000000000000000000000000000000000000000000000000000000000000000000000018
:020000040003F7
:0200000490303A
:020000006C771B
:0200000490402A
:4000000000000000000000000000000000000000000000000000000000000000000000000000000000000000000000000000000000000000000000000000000000000000C0
:400040000000000000000000000000000000000000000000000000000000000000000000000000000000000000000000000000000000000000000000000000000000000080
:0200000490501A
:0C00000000021A6D11AA00011A797E217D
:0200000490600A
:0100000001FE
:00000001FF