:400000000080002011000000D1100000D110000010B501F07FF8C04670B5244D12232B6001F018FE012001F035FE182001F02CFD1F4A204B1A60204A116802230B4313600F
:400040001E4A1F4B1A6000241E4B1C601E4A136808218B431360FA20C00001F0C7FD1B4801F008FD80225201194B1A60194B1A4919601A490A601A4A1A6080221206194B1A
:400080001A60194B1C604022184B1A600132184B1A601849082001F0A9FC082001F090FC154B1C6011232B6070BDC046300010400600008004010B4078002E4066660000FD
:4000C0007C002E4064F02E406CF02E40DC050000000301400000014040FF00800403014041FF008008010B4000010B400801014004010140AD1D00000C020B4010B572B61D
:4001000000222F4B1A6000240FE02E486200131959000B00411889881A5AC31858880004104300F0CFFF0134E4B2012CEDD9254801000C31383000F09BFFEE221206224B90
:400140001A60224A224B1A60224A234B1A6099231B04224A1360224A1360C0210904214A1160214A1360214A214B1A6021490B783C22934314221343DBB20B701E4A117826
:4001800016230B43DBB21370D82212041B4B1A6028221B4B1A60C22292021A4B1A602023194A1360A221194A11601949194A1160194A1360FFF730FF00F074FF10BDC04620
:4001C0006CF02E40E4330000000002400030900000010240390099300003024000500F4010500F4018500F4030500F4000000C8038500F4001700F4000700F400800044090
:400200000001044008010440180104400003044021108300080304401803044010B5064C2378002B07D1054B002B02D0044800E000BF0123237010BD48010020000000004C
:40024000102E0000084B10B5002B03D00749084800E000BF07480368002B00D110BD064B002BFBD09847F9E7000000004C010020102E0000C000002000000000F0B55F468D
:4002800056464D464446F0B4DDB062B6FE4801F04FFE022001F056F800F0A2FF01F06AFEFA4801F059F8FA4AFA49FB4801F0F0F8FA4801F051F882214900F94B0A00F9484F
:4002C00001F0EAFD01F0C4FDF74801F045F8F74C00220021200000F02DFE01F0B9FD00220121200000F026FE01F0B2FD00221F21200000F01FFE01F0ABFDED4C0022802163
:40030000200000F017FE01F0A3FD00228121200000F010FE01F09CFD00229F21200000F009FE01F095FDE34C01222021200000F001FE01F08DFD01222521200000F0FAFD92
:4003400001F086FD01223F21200000F0F3FD01F07FFDD94C0122A021200000F0EBFD01F077FD0122B321200000F0E4FD01F070FD0122BF21200000F0DDFD01F069FDCF4C0E
:4003800002224021200000F0D5FD01F061FD02224421200000F0CEFD01F05AFD02225F21200000F0C7FD01F053FDC54C0222C021200000F0BFFD01F04BFD0222CA212000D8
:4003C00000F0B8FD01F044FD0222DF21200000F0B1FD01F03DFDBB4C03226021200000F0A9FD01F035FD03227A21200000F0A2FD01F02EFD03227F21200000F09BFD01F0AA
:4004000027FDB14C0322E021200000F093FD01F01FFD0322EB21200000F08CFD01F018FD0322FF21200000F085FD01F011FD44AC200001F04FF8A54800F08EFFA44E00235B
:4004400089223100200000F065FC01F001FDFA25AD0001232A009F49200000F05BFC01F0F7FC0A21200001F043F88023DB009B460A229949200000F04DFC01F0E9FC2000C0
:4004800001F09EF8200001F025F8944800F064FF01229349200000F06FFC01F0D9FC8921200001F025F800223100200000F064FC01F0CEFCFA21C900200001F019F8012299
:4004C0008849200000F058FC01F0C2FC0A21200001F00EF8200001F073F801228249200000F04AFC01F0B4FC200001F069F87F4800F032FF200000F0EDFF2A007C49200010
:4005000000F020FC01F0A4FC7A4800F025FF200000F0E0FF8921200000F0EAFF3FAE032503227549300002F031F802232370CC2363700327658103223100606802F026F8BB
:4005400000226E49200000F025FC01F081FC0123994623700023638100226949200000F019FC01F075FC8A23638101226549200000F010FC01F06CFC5B46638109226249D9
:40058000200000F007FC01F063FC200001F018F85E4800F0E1FE200000F09CFF8921200000F0A6FF032254492BA801F0EFFF002323706370658103222BA9606801F0E6FFBE
:4005C00030AD0F220021280001F0FEFF4B462B70EF702B716F710523AB71FF2398466B72F323AB72493B9B46EB722A004849200000F0E4FB01F02CFC0023638135AF0F22BA
:400600000021380001F0E0FF4B463B704346BB71FB715B463B723A003E49200000F0CEFB01F016FC0223A3813AAF0F220021380001F0CAFF4B463B7002237B714346BB71D1
:40064000FD23FB715B463B723A003349200000F0B5FB01F0FDFB4B4663816B46AC229B1842461A7063681A700223A3810F220021300001F0A9FF012333704B46F37043468B
:40068000337102234AE0C04659130000182E0000242E0000482E0000542E0000602E0000483300007C2E0000902E0000B02E0000CC2E0000E82E0000042F0000242F000060
:4006C000402F00005C2F0000782F0000942F0000B42F0000BC2F0000C42F0000D42F0000F42F0000043000001030000024300000483000005C300000142E000094300000DD
:40070000A4300000B0300000CC300000F0300000283100003831000044310000B371FE27F771FD2333725B4673723200FE49200000F044FB01F08CFB200000F041FFFB48E3
:4007400000F00AFE80225201F949002000F07CFB01F07EFB0022F749F74800F075FB01F077FB0022F549F64800F06EFB01F070FBF44800F0F1FD200000F0ACFE4B4633709A
:400780004B460093F04B01223100200000F088FB01F05EFB6421200000F0AAFE6423E3874B4633704B460093E84B01223100200000F076FB01F04CFB4B46337000230093F9
:4007C000E34B01223100200000F06AFB01F040FB0223337002230093DE4B01223100200000F05EFB01F034FB200000F0E9FEDA4800F0B2FD200000F06DFE8921200000F063
:4008000077FE0F2200212BA801F0DEFE6B46AC229B184A461A706B46AD229B184A461A706B46B2229B1842461A706B46B3229B181F706B4601329B185A461A7009236383D3
:4008400009222BA9606901F0A1FE0022C349200000F046FB01F0FCFA0F220021280001F0B3FE4B462B7005236B700223EB7043462B716B71FD232B72FA236B725B46AB7279
:400880000B23638360690B22290001F07FFE44AC0022B349200000F023FB01F0D9FA082363832BAE08223100606901F06FFE2022AC49200000F014FB01F0CAFA0F220021CE
:4008C00035A801F081FE02239B466B46D4229B185A461A70052399466B46D5229B184A461A706B46D7229B185A461A706B46D8229B1842461A706B46D9229B1842461A703D
:400900006B46DC229B1821321A70F9236A46DD21521813706B46DE229B18343A1A700B2363830B2235A9606901F030FE02228E49200000F0D5FA01F08BFA3AAF0F220021D3
:40094000380001F041FE01239A463B704B467B705B46FB7043463B717B71FD233B72F0237B72463BBB720B2363830B223900606901F00CFE802292007C49200000F0B0FA4B
:4009800001F066FA3FAD0F220021280001F01CFE53462B704B466B705B46EB7043462B716B71FD232B72FA236B724F3BAB72A03B63830B222900606901F0E8FD04226C49E9
:4009C000200000F08DFA01F043FA200000F0F8FD684800F0C1FC200000F07CFD8921200000F086FD0F22002103A801F0EDFD6B4652461A7310225A7342469A74EF22DA7468
:400A0000AA221A7509236383092203A9606901F0BDFD0023994633701023737007AB7360892333814B467381B3814B46336132005149200000F0D8FA01F00AFA0BAE0F22F3
:400A40000021300001F0C0FD53463370102373705B46F370434633717371FD233372EF237372AA23B3720FAE0F220021300001F0ABFD4346337073700B2363830B220BA986
:400A8000606901F083FD30AA00231370102353700FAB5360892313815B4653814B4693814B4613613549200000F09EFA01F0D0F913AE0F220021300001F086FD53463370E7
:400AC000222373700223F370434633717371FD233372DD237372333BB37217AE0F220021300001F071FD4346337073700B2363830B2213A9606901F049FD6B46D4229B18EC
:400B000052461A706B46D5229B18B33A1A7017AB36936B46DC229B18533A1A806B46DE229B185A462CE0C046583100007031000088310000983100003D210000A4310000B8
:400B40001D210000AC310000D8310000E4310000F431000000320000103200003C3200005832000068320000783200008C3200009C320000B0320000DC320000E8320000D1
:400B80001A806B46E0229B184A461A804B46399335AA5A49200000F027FA01F059F91BAE0F220021300001F00FFD53463370402373700223F370434633717371FD23337290
:400BC000BF237372153BB3721FAE0F220021300001F0FAFC4346337073700B2363830B221BA9606901F0D2FC02233B7040237B707E6089233B815B467B814B46BB814B4688
:400C00003B613A003E49200000F0EEF901F020F923AE0F220021300001F0D6FC5346337070239A4673700223F370434633717371FD2333728F2373721B33B3720F220021F4
:400C400027A801F0C1FC6B469C229B1842461A706B469D229B1842461A700B2363830B223100606901F092FC03262E7053466B7027AB6B6089232B815B466B814B46AB815A
:400C80004B462B612A001F49200000F0ADF901F0DFF8200000F094FC1B4800F05DFB200000F018FC8921200000F022FC0F220021380001F089FC43463B700F237B702E70D1
:400CC00053466B706F6089232B815B466B814B46AB814B462B610D49280000F02FFE200000F06EFC01F0C6F8094800F035FB00F013FB0028FBD000F0B1FEF8E7F832000024
:400D00000C3300001C3300002C330000591300004C330000F8B505000E001F00110000F0E7FB0400064B3A000100300001F0B4F80600002C02D1280000F042FC3000F8BD7C
:400D400048330000F8B505000E001700002408E08921280000F0CCFB280000F031FC0134A4B2BC42F4D3034B00220021300001F093F8F8BD4833000070B50C00150000F054
:400D80001FFC0100024B2A00200001F085F870BD4833000070B504000D00160000F0F6FC0100054B3200280001F076F80500200000F042FC280070BD48330000F0B5A1B019
:400DC00007000591160000F0E1FC0490002827D01B4B00220100059801F05EF82EE0039435192B787969095D5B1A58425841024013D1380000F020FC2B787A690399525C93
:400E0000009222000F4907A801F0B2FC07AB00220499059801F040F810E00134A4B201E0012200247B8B9C42D9D3380000F004FC034B00220499059801F02EF821B0F0BD87
:400E4000483300006C33000070B598B004000D001600684600F03EFB8921684600F048FB139401236A465370684600F0F7FC041E02D0684600F0E0FB02236A4653706846E0
:400E800000F0ECFC0443684600F09AFB034B32002100280001F000F818B070BD48330000F0B583B000900D00160001930024002706E0295D009800F0CDFB07430134A4B2C3
:400EC000B442F6D3009800F0BDFB044B089A3900019800F0E1FF03B0F0BDC04648330000F0B583B007000191160000F09FFB0024002509E0002D05D17B69195D380000F0B7
:400F0000A9FB05430134A4B27B8B9C42F2D3002D03D1380000F0C2FC0543380000F08CFB034B32002900019800F0B6FF03B0F0BD4833000070B582B00500080016006B46C6
:400F4000DC1D210000F0F2FB2178034B3200280000F0A2FF02B070BD48330000F0B557464E464546E0B4040003780A789A1A5642564143784A789A1A5042504181462389AE
:400F800008891B1A5A425A41904665894B89EB1A5A425A419246A78988893F1A7B427B419C4623690A699F1A784278414A46324043461A40534613406246134018400BD168
:400FC0000DE06268D25C4E68F65C921B57425741384001339BB200E00023AB42F1D31CBC90469946A246F0BDF0B589B007000191160000F01BFB0024002509E0002D05D18F
:401000007B69195D380000F025FB05430134A4B27B8B9C42F2D3002D03D1380000F03EFC0543380024303100FFF798FF0400002303931022002104A801F0C6FA002C09D12A
:4010400003A90A480B00020013CA13C303CA03C312781A70380000F0EFFA03AB00222900019800F019FF09B0F0BDC046CC330000F0B50025002711E0BB00C658F3B2FF2274
:40108000964308E06A008A181478A419527822700135013BDBB2002BF4D10137042FEBD9F0BDC0460323044A1360044A13600022034B1A607047C04630003040300031405D
:4010C000000E3F4010B50A00002101F07DFA10BD10B501F025FA03680C2B00D1FEE7FEE710B50300094A1068C318094A9A1A8021C9008A4202DC054A136005E001F010FA01
:401100000C2303600120404210BDC046C40000201004002070B50F4E0F4D13E029686B68AC68002202E001C901C30432A242FAD1E868002202E0002102C304328242FAD1D0
:401140001035013E002EE9D101F0F0F9FFF796F8FEE7C046010000003836000010B50E4A136801218B43136000230AE0032B03D89A000A49505800E009489900094A8850B0
:4011800001332F2BF2D9FEF7B9FF034A116801230B43136010BDC0460000104000000000D11000000000002010B50A2000F008FC10BDC04610B500F099F810BD10B500F0DC
:4011C0001FF810BD10B5054A1368802109060B431360FFF7E9FFFFF7EDFF10BD0000254010B5064B1B78002B04D1FFF7E7FF0122024B1A70FFF7E6FF10BDC0466401002067
:4012000070B5204A204B1A600024204B1C60204A204B1A60204B214A13600721204A1160204A14600639204A1160204A1360204B1C6004251F4B1D600A2000F0CBFB0321C4
:401240000A2000F0E5FB1C490A2000F0CFFB1B4B1C601B4B1C601B4B1C601B4B1C601B4B1D601B4B1C601A681A4B1A801A4B1C601A4B1C601A4B1C701A4B1C601A4B1C60E8
:4012800070BDC0460B080002000025404000254001000A004800254007000080000325400403254010032540440025400002254004022540500025402D220000880E2540D7
:4012C000C80E2540480F2540080F2540C80F2540880F25406C010020DC02002004040020FC03002000040020F8030020064A1168064B0B40902109040B431360044B1A885D
:40130000044B1A607047C04600030240FFFF0FFF6C010020880F254010B500F03BFF002802D000F01DFF00E00020054B1A68D8239B001A4203D01A00014B1A60002010BDF4
:40134000C00F254010B507238343180000F024FB00F028FB10BDC0460FB4F0B58DB001248AE0252805D000F029FF129B0133129382E05A1C12925B78732B11D1651CA4008F
:4013800012AB9C466444246802E000F017FF013420780028F9D1129B013312932C006BE0642B26D1671CA40012AB9C466444266800256C1C0A21300001F0A2F8AD006B4643
:4013C000E9500A21300001F015F8060025000028EFD107E0013CA3006A469B582B4AD05C00F0ECFE002CF5D1129B013312933C0042E0632B0ED1651CA40012AB9C466444B4
:401400002368FF20184000F0D9FE129B013312932C0031E0782B2DD1651CA40012AB9C4664442368002000E02000441C0F21194082006E4691511B09F6D1E30703D5A40016
:401440000023A351841C012C0DD8A300002269465A50013407E0013CA3006A469B580B4AD05C00F0ABFE002CF5D1129B013312932C0001E0002A04D0129B1878002800D014
:401480006FE70DB0F0BC08BC04B018473034000070B505000C0016000A48FFF75DFF3000FFF75AFF0848FFF757FF2800FFF754FF0648FFF751FF2000FFF74EFF0448FFF77D
:4014C0004BFF70BD6834000094340000AC340000B434000010B504006022002101F074F800234422A354243AA354002010BDC046F8B54F464646C0B404000E00836A4268CD
:40150000816B002908D14169002908D1002B09D1002A0AD100250AE08025ED0007E08025ED0004E08025ED0001E08025ED00002D40D13100012000F0E9FF071E02D1012380
:401540001D4334E0A063A6873100012000F0DEFF8046031E02D101331D4325E0606126833100012000F0D2FF8146031E02D101331D4316E0A062A68500224423E254310076
:40158000012000F0C3FF002802D101231D4306E06060268100222023E254002D0AD000F0EBFF484600F0E8FF404600F0E5FF380000F0E2FF28000CBC90469946F8BDC046E8
:4015C00070B504004069002808D000F0D5FF0023636123836383E361002500E00125A06B002807D000F0C8FF0023A363A387E387236401E001231D43A06A002806D000F011
:40160000BBFF0023A362A385E38501E001231D436068002806D000F0AFFF002363602381638101E001231D43280070BD0023C38744330022C2547047002343832033002216
:40164000C254704710B50400FFF7F6FF2000FFF7EDFF10BD10B50300828F002A07D0806B002806D0D88F824205D9002004E0012002E0012000E00120002853D144229A5C7D
:40168000042A4FD89200284CA2589746012902D00223184346E00122DA879A6B11704422012199543EE0DA8F541CDC879C6BA154DA8F042A36D1996B8A781202C9780A433B
:4016C000DA8503D10321443299542BE002214422995427E0DA8F541CDC879C6BA154D98FDA8D0432914203D103214422995419E0914217D90021442299540823184311E0A6
:40170000DA8F541CDC879C6BA154DA8D093292B2D98F8A4206D104214422995402E08023DB00184310BDC046E03400007F2318401F280FD90300203BDBB21F2B0CD9030020
:40174000403BDBB21F2B09D96038C0B21F2809D8032304E0002302E0012300E002230B70002001E0802000067047C04610B50022002304E0C45C121992B20133DBB29CB260
:401780008C42F7D3504280B210BDC04670B50400438980225200934201D8002500E008250933228B934201D901231D432023E35C002B02D08023DB001D43002D4BD101234B
:4017C000638362691370638B5A1C628362786169CA54628B531C638363891B0A61698B54638B5A1C628362896169CA54002308E0628B511C61836168C95C60698154013389
:401800009BB262899342F3D3628B531C6383A3891B0A61698B54638B5A1C6283227B6169CA5466696189063189B23000FFF79EFF638B5A1C6283020AF254638B5A1C6283F9
:401840006269D054638B5A1C6283AA226169CA54A93A2023E254280070BDC04670B50400FFF794FF05002023E35C012B02D08023DB001D43E36C002B02D180225201154316
:40188000002D08D1618B6069984700222023E2542000FFF7D1FE280070BDC04670B505004423C35C042B45D1836B1A78012A01D1002400E002245878290024314870FFF71B
:4018C00035FF0443A96B8A781202CB781A43EA8580235B009A4201D9F83B1C43A86A002801D101231C43002C26D1043100F057FEE98D0E1DAB6B9C466644337872781B02CD
:4019000013432B86063189B26046FFF72FFFB378F2781B021343984202D080239B001C433379AA2B01D004231C432800FFF77EFE200002E0202000E0200070BDF8B506007F
:401940000D0001780D48A84771780D48A847778939000C48A84771780B48A847002405E07368195D0948A8470134A4B2BC42F7D30748A847B1890748A847F8BDF434000049
:4019800008350000183500002C350000383500004035000044350000014B18707047C04673000F40014B1878C0B2704773000F40024B1B68012018407047C0460C002E4047
:4019C0001F2318401E3B8340014A13607047C04600E100E01F2318401E3B8340014A13607047C04680E100E001BE704770B504000D001F2802D90020FFF7F6FF1034A400C2
:401A000080239B059C4664442068256070BDC04670B504000E00032902D90020FFF7E4FF1F2C02D90020FFF7DFFF03252540ED00063500F08EFBA408A400074B9C466444EE
:401A400021680323AB4099430B003100A9401943216000F082FB70BD00E400E0034A13681B041B0C02490B43136070470CED00E00400FA0510B5034B1B7B584300F060FB54
:401A800010BDC046C8000020F0B557464E46C0B483B0040000F05DFB0190E71E2D2F74D83F4B1B78DBB29C4208D83E4B1B78DBB29A463D4B1B78DBB2994631E03B4B1B78C2
:401AC000DBB29C4208D83A4B1B78DBB29A46394B1B78DBB2994623E0374B1B78DBB29C4208D8364B1B78DBB29A46354B1B78DBB2994615E0334B1B78DBB29C4208D8324B62
:401B00001B78DBB29A46314B1B78DBB2994607E02F4B1B78DBB29A462E4B1B78DBB299462D4BDE5D2F2E09D92A2C07D919222B4B1A60052000F004FB192503E0274B1D68D2
:401B40003F231D40B54206D9234BDA5D234B1A60052000F0F5FA1F4B9C4664442378DBB21F4A13601F4B52461A601F4B4A461A600520FFF77FFFB5420AD2174BDA5D174BF0
:401B80001A60052000F0DCFA02E00020FFF72CFF019800F0E2FA03B00CBC91469A46F0BD40F3FF0F41F3FF0F42F3FF0F43F3FF0F44F3FF0F45F3FF0F46F3FF0F47F3FF0F35
:401BC00048F3FF0F49F3FF0F4AF3FF0F4BF3FF0F4CF3FF0F4DF3FF0F543500002CFF0B4028FF0B401CFF0B4020FF0B4010B504000F4A116801230B4313600E4A0E4B1A6034
:401C00000E4A1368802109020B431360002809D100200CE00120FFF72DFFFFF7C9FE002804D1013C002CF5D1102000E0002010BD60F02E400220000078002E4010002E40E9
:401C4000034B1868C0231B02184000D00120704700010B4010B50D4B1A6801218A431A601A68022082431A60094A10683024A043203C204310601068093CA04301431160D9
:401C80001A68802109060A431A6010BD00F02E4000FF2E4070B51D4B1B6801241C40002802D0012816D02BE0184B19680122914319601968022081431960154B19682E307B
:401CC00081432038014319601968093881430A431A6018E00D4B1A6802218A431A600C4A10680725A84301431160116830208143103801431160196801220A431A6002E011
:401D00000020FFF771FE200070BDC04600F02E4000FF2E4010B500F01CFA044A1368C02109020B43136000F018FA10BD00010B4010B500F00EFA08490A68084B1A408024D3
:401D4000E40122430A600A6813408022120213430B6000F002FA10BD00010B40FF3FFFFF70B5050000F0F5F90400FFF769FF002803D0FFF7DDFF012100E000210848284020
:401D8000084A1568084B2B40184310601368012901D1FFF7BFFF200000F0DFF970BDC0460404040010020B40FBFBFBFF10B5244B1B685B0715D5234B5B685B070ED5224B46
:401DC000596A042001401F4C62688A4362605A6A82435A629B69002B00D098470420FFF7BFFF174B1B685B0518D5164B5B685B0510D5154B596A8022D20011401148426876
:401E00008A434260596A114A0A405A62DB69002B00D098478020C000FFF7A2FF084B1B685B030CD5074B5B685B0304D5064B1B6A002B00D098478020C002FFF791FF10BD34
:401E400010020B40DC00002070010020FFFBFFFF034B1A8801321A805A8810185880704798010020024B00221A805A807047C0469801002010B5064B5B68002B04D00449F3
:401E80000A88498803489847FFF7ECFF10BDC046980100208435000070B50D0014001E001D4B5B68002B00D098471B4B5B68002B01D01A489847A54209D0174B5B68002B90
:401EC00024D02A00210016489847002023E03378002B13D0104B5B68002B01D0114898470D4B5B68002B01D0300098470A4B5B68002B0DD00C48984700200CE0064B5B689F
:401F0000002B07D009489847012004E0002002E0002000E0012070BD980100204C340000A0350000C4350000782E0000D0350000014B58607047C0469801002010B5092000
:401F4000FFF73EFD10BDC04610B500F0D1F810BD10B500F057F810BD10B5054A1368802109060B431360FFF7E9FFFFF7EDFF10BD0000244010B5064B1B78002B04D1FFF7B1
:401F8000E7FF0122024B1A70FFF7E6FF10BDC046A0010020144B1A68144B1B689A4208D1134B1B681F221340102B02D0114B186019E00D4B1A680132892A00D100220B4B02
:401FC0001B689A42FBD002230B490B60C0B20B49885405490A600A4A1268134203D1084A11680B43136070474C020020440200200802244040022440800F2440B40100208F
:40200000880F244070B5204A204B1A600024204B1C60204A204B1A60204B214A13600721204A1160204A14600639204A1160204A1360204B1C6004251F4B1D600920FFF7A0
:40204000C9FC03210920FFF7E3FC1C490920FFF7CDFC1B4B1C601B4B1C601B4B1C601B4B1C601B4B1D601B4B1C601A681A4B1A801A4B1C601A4B1C601A4B1C701A4B1C60CA
:402080001A4B1C6070BDC0460B080002000024404000244001000A004800244007000080000324400403244010032440440024400002244004022440500024401123000008
:4020C000880E2440C80E2440480F2440080F2440C80F2440880F2440A801002048020020400200203D0200204C02002044020020064A1168064B0B40902109040B43136094
:40210000044B1A88044B1A607047C04600010240FFFF0FFFA8010020880F244070B505000E00002405E02878FFF734FF01350134E4B2A3B2B342F6D370BDC0467047C04607
:402140000230800803D00138FDD1C046C046C0467047EFF3108072B6704780F310887047094B1A68094B1B689A420BD0074B1B6801338A2B00D10023054AD05CC0B2034A9F
:40218000136000E000207047DC020020040400206C030020074B1B68074A1268934203D3054A1068181A04E0034A10681B1A8A3318007047DC02002004040020144B1A688B
:4021C000144B1B689A4208D1134B1B681F221340102B02D0114B186019E00D4B1A680132892A00D100220B4B1B689A42FBD002230B490B60C0B20B49885405490A600A4A34
:402200001268134203D1084A11680B431360704700040020F80300200802254040022540800F2540E0020020880F254010B5274B1B68002B00D09847254B1B685B071DD596
:40224000244B1B6801338A2B00D10023224A1268934205D1214B1B682022214B1A7006E01E4A1268D2B21F49CA541A4A13601E4B1B68DB06E4D104221C4B1A601C4B1B68BB
:402280009B0721D51B4B1A681B4B1B689A4213D0194B1B680133892B00D10023174AD25CD2B217490A60144A1360164B1B681F221340102BE6D104E0134A136802218B436E
:4022C00013600222114B1A6010BDC04668010020CC0F2540DC0200200404002040032540FC0300206C03002008032540C00F25408C0F254000040020F8030020E002002074
:402300004002254008022540880F2540800F254010B5274B1B68002B00D09847254B1B685B071DD5244B1B6801338A2B00D10023224A1268934205D1214B1B682022214BBF
:402340001A7006E01E4A1268D2B21F49CA541A4A13601E4B1B68DB06E4D104221C4B1A601C4B1B689B0721D51B4B1A681B4B1B689A4213D0194B1B680133892B00D10023CC
:40238000174AD25CD2B217490A60144A1360164B1B681F221340102BE6D104E0134A136802218B4313600222114B1A6010BDC046A4010020CC0F2440480200204002002048
:4023C000400324403D0200205002002008032440C00F24408C0F24404C02002044020020B40100204002244008022440880F2440800F2440002243088B4274D303098B42BF
:402400005FD3030A8B4244D3030B8B4228D3030C8B420DD3FF22090212BA030C8B4202D31212090265D0030B8B4219D300E0090AC30B8B4201D3CB03C01A5241830B8B421B
:4024400001D38B03C01A5241430B8B4201D34B03C01A5241030B8B4201D30B03C01A5241C30A8B4201D3CB02C01A5241830A8B4201D38B02C01A5241430A8B4201D34B02AE
:40248000C01A5241030A8B4201D30B02C01A5241CDD2C3098B4201D3CB01C01A524183098B4201D38B01C01A524143098B4201D34B01C01A524103098B4201D30B01C01AE3
:4024C0005241C3088B4201D3CB00C01A524183088B4201D38B00C01A524143088B4201D34B00C01A5241411A00D20146524110467047FFE701B5002000F006F802BDC0465A
:402500000029F7D076E770477047C04610B5034B0A000100186800F05FF810BD44010020014B18687047C046440100200E4B70B500251E000D4CE41AA410A54204D0AB00A3
:40254000F35898470135F8E701F064F8084B00251E00084CE41AA410A54204D0AB00F35898470135F8E770BD2036000020360000203600002836000010B5034B010018686D
:4025800000F038F810BDC04644010020002310B59A4203D0CC5CC4540133F9E710BD10B5884202D98B18984201D3002305E09B1A013A08D3995C8154FAE7934203D0CC5C02
:4025C000C4540133F9E710BD03008218934202D019700133FAE770474A4370B51100140000F054F8051E03D022000021FFF7ECFF280070BD70B50500002944D00C1F2368AA
:40260000002B00DAE418280000F0D4F81E4A13681100002B02D16360146031E0A3420DD92268A018834203D118685B688218226063600C6024E0A24203D813005A68002A85
:40264000F9D11E689819A0420BD12168711858181960824214D110685268411819605A600EE0A04202D90C232B6009E021686018824203D1106852684118216062605C60C8
:40268000280000F098F870BDB0010020032370B5CD1C9D43083506000C2D01D20C2501E0002D01DBA94202D90C23336048E0300000F080F8234B1C681A002100002913D075
:4026C0000B685B1B0DD40B2B02D90B60CC181EE08C4202D1636813601AE04B6863600C0016E00C004968E9E7174C2368002B03D1300000F02BF820602900300000F026F8BD
:40270000431C18D00323C41C9C43A0420DD12560300000F050F8200007220B30231D9043C31A0ED05A42E2500BE0211A300000F00DF8431CEBD10C233000336000F03BF825
:40274000002070BDB0010020AC010020002370B5064C050008002360FEF7C2FC431C03D12368002B00D02B6070BDC046080400200EB410B59DB002A9029008610B4882247B
:4027800088604861012040421FABC881084804CBA400006801938C8100F070F80023029A13701DB010BC08BC03B01847FFFFFF7F4401002070477047F0B58E6885B00700D7
:4027C0000C00039201939E4243D890238A89DB001A423ED003250969236801985B1A029363695D43EB0F5D19029B6D1001331B18AB4200D91D00530510D529003800FFF702
:4028000045FF061E14D0029A2169FFF7BFFEA289194B134080221343A38112E02A00380000F0C5FA061E0CD121693800FFF7E2FE0C23402201203B60A38940421343A38164
:4028400017E0029B2661F61826606561019EED1AA560019BB34200D21E00320003992068FFF79DFE0020A3689B1BA36023689E19266005B0F0BDC0467FFBFFFFF0B59FB050
:40288000029005938B890F0016001B0610D50B69002B0DD14021FFF7F9FE38603861002804D10C23029A01381360D8E040237B61002306AD6B6120336B761033AB763400DA
:4028C0002378002B03D1A31B049312D003E0252BF9D00134F4E7A31B320039000298FFF76BFF431C00D1B4E06A69049B944663446B612378002B00D1ABE001220023524259
:402900006A6002A95432521801342B60EB60AB601370AB65534E21780522300000F03CFA002807D00123801B83402A68013413432B60EFE72B68DA0604D55322202102A827
:40294000121811701A0704D553222B2102A81218117022782A2A03D0099B00200A210EE0059A111D12680591002A01DB099204E05242EA60022213432B6001340BE02278FF
:40298000303A092A04D84B4301349B180120F6E7002800D0099323782E2B1ED163782A2B0AD1059B02341A1D1B680592002B01DA01235B42079310E000230A201A00013494
:4029C0006B6021783039092904D84243013452180123F6E7002B00D00792234E21780322300000F0D9F9002806D04023801B83402A68013413432B60217806221B48661C15
:402A0000297600F0C9F9002812D0194B002B06D10722059B073393430833059314E005AB00933A00134B2900029800E000BF07E005AB00933A000F4B2900029800F08AF805
:402A40000390039B013304D06B69039A9B186B6135E7BB890B985B0601D5012040421FB0F0BDC046DE350000E4350000E835000000000000B9270000F7B5170001938A685C
:402A80000B6900900C00934200DA130022003B6043321278002A01D001333B6023689B0602D53B6802333B60062523681D401ED0230043331B785A1E9341226892061CD5BC
:402AC0003020E1184331087021005A1C45310978A2184332023311700FE022000123193201990098089EB047431C0ED00135E3683A689B1A9D42F0DBDAE72200019943322E
:402B00000098089DA847431C02D10120404220E006232068E1683A6803400025042B03D18D1AEB43DB171D40A3682269934201DD9B1AED180027BD420AD0220001231A32D4
:402B400001990098089EB047431CDED00137F2E70020FEBDF0B58BB006920A0043320793059004920A7E0C00109B6E2A00D1ABE011D8632A22D009D8002A00D1B5E0582A43
:402B800000D0C5E045310A70814A4FE0642A1DD0692A1BD0BCE0732A00D1AAE009D86F2A29D0702A00D0B3E0202209680A43226037E0752A1FD0782A33D0A9E00E001A68D4
:402BC0004236111D196013683370A4E021681A68080606D4490604D5111D19600023D55E02E0111D19601568002D3BDA2D23049A6D42137036E021681A68080606D449063C
:402C000004D51568111D1960ADB202E0111D196015685F4B227E039308276F2A1DD00A271BE022007821453211705A4A19680392081D226818600D68100602D4500600D551
:402C4000ADB2D30702D520231A4322601027002D03D1202322689A4322602300002243331A7002E00A274A4B03936368A360002B09DB0422216891432160002D05D1049EB5
:402C8000002B11D07BE0002D79D0049E28003900FFF736FC039B013E5B5C280033703900FFF7A8FB051EF1D1082F09D12368DB0706D563682269934202DC3023013E33705F
:402CC000049B9B1B23612BE009681A68080607D4490605D5111D19601368A28A1A8004E0111D1960136862691A600023049E236116E01A68111D19601668002162683000B7
:402D000000F04AF8002801D0801B6060636803E0260042363270012323610023049A1370079B09AA00932100069B0598FFF7A4FE431C02D10120404227E02369320006991B
:402D40000598079DA847431CF4D0236800259B070FD4099BE068984217DA180015E022000123193206990598079EB047431CE1D00135E368099A9B1A9D42F0DBE9E7260015
:402D8000039B42361B7833708EE70BB0F0BDC046EF35000000360000C9B28218904204D003788B4202D00130F8E700207047F8B506000C001500002904D11100FFF766FC93
:402DC000040018E0002A03D1FFF714FC2C0012E000F013F885420ED929003000FFF756FC071E07D021002A00FFF7D0FB21003000FFF700FC3C002000F8BD0B1F1A68101F34
:402E0000002A04DA891804390B68D0180438704700000000010305001B5B324A1B5B313B314800002020202020205041434B45542054455354494E4720554E495420544539
:402E400053545320000000004F637420203420323031380030303A32353A3534000000000D0A2A2A2A205061636B65742056657273696F6E202A2A2A0D0A00005061636BC8
:402E800065742056657273696F6E20312E3400000D0A2A2A2A20436F6D6D616E6420746F204D6F64756C65202A2A2A0D0A000000436F6E74726F6C20436F6D6D616E6420EE
:402EC000746F204D6F64756C65000000436F6E74726F6C20526573706F6E736520746F204D6F64756C650000416374756174696F6E20436F6D6D616E6420746F204D6F64C6
:402F0000756C6500416374756174696F6E20526573706F6E736520746F204D6F64756C650000000053656E73696E6720436F6D6D616E6420746F204D6F64756C650000006C
:402F400053656E73696E6720526573706F6E736520746F204D6F64756C650000456E6572677920436F6D6D616E6420746F204D6F64756C6500000000456E657267792052D4
:402F80006573706F6E736520746F204D6F64756C650000000D0A2A2A2A204275666665722067656E65726174696F6E202A2A2A0D0A0000004E6F726D616C00004C6F6E6782
:402FC000000000004D756C7469706C6520437265617465000D0A2A2A2A20427566666572204465737472756374696F6E202A2A2A0D0A00004E6F6E2D67656E6572617465F6
:40300000640000004661696C65642047656E00004D756C7469706C652064657374726F79000000000D0A2A2A2A204D656D6F7279204C65616B2047656E65726174696F6E40
:40304000202A2A2A0D0A00005265706561742047656E65726174696F6E7300000D0A2A2A2A20436F6E737472756374205061636B65742054657374205375697465202D2052
:403080005374617465204572726F7273202A2A2A0D0A00004261736963205061636B6574000000004E6F205061796C6F616400004C6F6E67205061796C6F6164202D206E67
:4030C0006F206D656D6F7279000000004C6F6E67205061796C6F6164202D206D6178207061796C6F61642C206D656D6F727900000D0A2A2A2A20436F6E73747275637420F2
:403100005061636B65742054657374205375697465202D205061636B65742056616C756573202A2A2A0D0A0053696D706C65205061636B65740000004E6F207061796C6F5F
:40314000616400004E6F2061636B6E6F776C6564676520666C6167004E6F2061636B6E6F776C6564676520666C616720320000000D0A2A2A2A2053656E64205061636B65BF
:4031800074202A2A2A0D0A004E6F2054582066756E6374696F6E000044756D6D79205458000000005265616C205458000D0A2A2A2A2050726F636573732052582042797402
:4031C00065202D205374617465204572726F7273202A2A2A0D0A00004E6F20427566666572730000427566666572206F766572666C6F770056616C696420537461727400F4
:40320000696E76616C69642053746172740000000D0A2A2A2A205061636B65742070617273696E67202D205374617465204572726F7273202A2A2A0D0A00000056616C690C
:4032400064207061636B6574202D206E6F207061796C6F616420000056616C6964207061636B65742000000053686F7274207061636B657400000000496E76616C696420A7
:4032800073746172742073796D00000042616420436865636B73756D00000000496E76616C696420456E642053796D626F6C00000D0A2A2A2A205061636B65742070617209
:4032C00073696E67202D205061636B65742056616C756573202A2A2A0D0A00004E6F207061796C6F616420005061796C6F6164206578697374732000416374756174696F48
:403300006E204D6F64756C650000000053656E73696E67204D6F64756C650000456E65726779204D6F64756C650000000D0A2A2A2A2056616C6964617465205061636B6569
:403340007473202A2A2A0D0A00000000507265737320616E79206B657920746F2072652D72756E2074657374730D0A004D69736D6174636820617420696E646578205B25EA
:40338000645D3A206578706563743A203078253032782C20676F743A203078253032780052656365697665643A20307825782C2077616E7465643A20307825782061742088
:4033C000706F736974696F6E202564005061636B65747320646F206E6F74206D617463680000000000300F40000400400F4000047307DB04DF0169806A086B0887088A0419
:403400008D405F108710D620E2105401610288018D02D604D802E001E408000001000F4002320F4006330F4004410F4008430F403031323334353637383941424344454655
:4034400000000000436F6D70696C65643A20000030313A30363A3537000000004F63742020332032303138002A2A2A2A2A2A2A2A2A2A2A2A2A2A2A2A2A2A2A2A2A2A2A2AAA
:403480002A2A2A2A2A2A2A2A2A2A2A2A2A2A0D0A2A2000000D0A2A0D0A2A20436F6D70696C65642061743A2000000000206F6E20000000000D0A2A2A2A2A2A2A2A2A2A2A69
:4034C0002A2A2A2A2A2A2A2A2A2A2A2A2A2A2A2A2A2A2A2A2A2A2A2A2A2A2A2A0D0A00008C160000A6160000D4160000001700001E1700000D0A4D6F64756C652049643A05
:403500002025640D0A000000436F6D6D616E643A2025780D0A0000007061796C6F6164204C656E3A2025640D0A0000005061796C6F61643A5B2000003078257820000000F7
:403540005D0D0A00466C6167733A20307825780D0A0D0A00030405060708090A0B0C0E0F101112131415161718191B1C1D1E1F2021222325262728292A2B2E2F3031323396
:40358000343500000D0A0A3E205061737365642025642F25642074657374730D0A0000004661696C65642C2045787065637465643A20307825782C20476F743A20307825F9
:4035C000780D0A004661696C65643A20000000005061737365640D0A000000004300232D302B2000686C4C0065666745464700303132333435363738394142434445460052
:403600003031323334353637383961626364656600000000F8B5C046F8BC08BC9E467047450200005D110000F8B5C046F8BC08BC9E4670471D02000048360000C00000206A
:4036400088000000C80200000000000010040020010000000000E02EC05D00001800000000366E01F0000000040404000000000000000000000000000000000000000000DF
:40368000000000000000000000000000DC350000000000000000000000000000000000000000000000000000000000000000000000000000000000000000000000000000F9
:4036C000000000000000000000000000E4000020000000000000000000000000000000000000000000000000000000000000000000000000000000000000000000000000C6
:403700000000000000000000000000000000000000000000000000000000000000000000000000000000000000000000000000000000000000000000000000000000000089
:403740000000000000000000000000000000000000000000000000000000000000000000000000000000000000000000000000000000000000000000000000000000000049
:403780000000000000000000000000000000000000000000000000000000000000000000000000000000000000000000000000000000000000000000000000000000000009
:4037C00000000000000000000000000000000000000000000000000000000000000000000000000000000000000000000000000000000000000000000000000000000000C9
:020000040003F7
:0200000490303A
:02000000A7EE69
:0200000490402A
:4000000000000000000000000000000000000000000000000000000000000000000000000000000000000000000000000000000000000000000000000000000000000000C0
:400040000000000000000000000000000000000000000000000000000000000000000000000000000000000000000000000000000000000000000000000000000000000080
:0200000490501A
:0C00000000021A6D11AA00011A7EB998C6
:0200000490600A
:0100000001FE
:00000001FF